{
  "_format": "hh-sol-artifact-1",
  "contractName": "MerkleTree",
  "sourceName": "contracts/MerkleTree.sol",
  "abi": [
    {
      "inputs": [
        {
          "internalType": "string",
          "name": "name",
          "type": "string"
        },
        {
          "internalType": "string",
          "name": "symbol",
          "type": "string"
        },
        {
          "internalType": "bytes32",
          "name": "merkleroot",
          "type": "bytes32"
        }
      ],
      "stateMutability": "nonpayable",
      "type": "constructor"
    },
    {
      "anonymous": false,
      "inputs": [
        {
          "indexed": true,
          "internalType": "address",
          "name": "owner",
          "type": "address"
        },
        {
          "indexed": true,
          "internalType": "address",
          "name": "approved",
          "type": "address"
        },
        {
          "indexed": true,
          "internalType": "uint256",
          "name": "tokenId",
          "type": "uint256"
        }
      ],
      "name": "Approval",
      "type": "event"
    },
    {
      "anonymous": false,
      "inputs": [
        {
          "indexed": true,
          "internalType": "address",
          "name": "owner",
          "type": "address"
        },
        {
          "indexed": true,
          "internalType": "address",
          "name": "operator",
          "type": "address"
        },
        {
          "indexed": false,
          "internalType": "bool",
          "name": "approved",
          "type": "bool"
        }
      ],
      "name": "ApprovalForAll",
      "type": "event"
    },
    {
      "anonymous": false,
      "inputs": [
        {
          "indexed": true,
          "internalType": "address",
          "name": "from",
          "type": "address"
        },
        {
          "indexed": true,
          "internalType": "address",
          "name": "to",
          "type": "address"
        },
        {
          "indexed": true,
          "internalType": "uint256",
          "name": "tokenId",
          "type": "uint256"
        }
      ],
      "name": "Transfer",
      "type": "event"
    },
    {
      "inputs": [
        {
          "internalType": "address",
          "name": "to",
          "type": "address"
        },
        {
          "internalType": "uint256",
          "name": "tokenId",
          "type": "uint256"
        }
      ],
      "name": "approve",
      "outputs": [],
      "stateMutability": "nonpayable",
      "type": "function"
    },
    {
      "inputs": [
        {
          "internalType": "address",
          "name": "owner",
          "type": "address"
        }
      ],
      "name": "balanceOf",
      "outputs": [
        {
          "internalType": "uint256",
          "name": "",
          "type": "uint256"
        }
      ],
      "stateMutability": "view",
      "type": "function"
    },
    {
      "inputs": [
        {
          "internalType": "uint256",
          "name": "tokenId",
          "type": "uint256"
        }
      ],
      "name": "getApproved",
      "outputs": [
        {
          "internalType": "address",
          "name": "",
          "type": "address"
        }
      ],
      "stateMutability": "view",
      "type": "function"
    },
    {
      "inputs": [
        {
          "internalType": "address",
          "name": "owner",
          "type": "address"
        },
        {
          "internalType": "address",
          "name": "operator",
          "type": "address"
        }
      ],
      "name": "isApprovedForAll",
      "outputs": [
        {
          "internalType": "bool",
          "name": "",
          "type": "bool"
        }
      ],
      "stateMutability": "view",
      "type": "function"
    },
    {
      "inputs": [
        {
          "internalType": "address",
          "name": "account",
          "type": "address"
        },
        {
          "internalType": "uint256",
          "name": "tokenId",
          "type": "uint256"
        },
        {
          "internalType": "bytes32[]",
          "name": "proof",
          "type": "bytes32[]"
        }
      ],
      "name": "mint",
      "outputs": [],
      "stateMutability": "nonpayable",
      "type": "function"
    },
    {
      "inputs": [
        {
          "internalType": "address",
          "name": "",
          "type": "address"
        }
      ],
      "name": "mintedAddress",
      "outputs": [
        {
          "internalType": "bool",
          "name": "",
          "type": "bool"
        }
      ],
      "stateMutability": "view",
      "type": "function"
    },
    {
      "inputs": [],
      "name": "name",
      "outputs": [
        {
          "internalType": "string",
          "name": "",
          "type": "string"
        }
      ],
      "stateMutability": "view",
      "type": "function"
    },
    {
      "inputs": [
        {
          "internalType": "uint256",
          "name": "tokenId",
          "type": "uint256"
        }
      ],
      "name": "ownerOf",
      "outputs": [
        {
          "internalType": "address",
          "name": "",
          "type": "address"
        }
      ],
      "stateMutability": "view",
      "type": "function"
    },
    {
      "inputs": [],
      "name": "root",
      "outputs": [
        {
          "internalType": "bytes32",
          "name": "",
          "type": "bytes32"
        }
      ],
      "stateMutability": "view",
      "type": "function"
    },
    {
      "inputs": [
        {
          "internalType": "address",
          "name": "from",
          "type": "address"
        },
        {
          "internalType": "address",
          "name": "to",
          "type": "address"
        },
        {
          "internalType": "uint256",
          "name": "tokenId",
          "type": "uint256"
        }
      ],
      "name": "safeTransferFrom",
      "outputs": [],
      "stateMutability": "nonpayable",
      "type": "function"
    },
    {
      "inputs": [
        {
          "internalType": "address",
          "name": "from",
          "type": "address"
        },
        {
          "internalType": "address",
          "name": "to",
          "type": "address"
        },
        {
          "internalType": "uint256",
          "name": "tokenId",
          "type": "uint256"
        },
        {
          "internalType": "bytes",
          "name": "data",
          "type": "bytes"
        }
      ],
      "name": "safeTransferFrom",
      "outputs": [],
      "stateMutability": "nonpayable",
      "type": "function"
    },
    {
      "inputs": [
        {
          "internalType": "address",
          "name": "operator",
          "type": "address"
        },
        {
          "internalType": "bool",
          "name": "approved",
          "type": "bool"
        }
      ],
      "name": "setApprovalForAll",
      "outputs": [],
      "stateMutability": "nonpayable",
      "type": "function"
    },
    {
      "inputs": [
        {
          "internalType": "bytes4",
          "name": "interfaceId",
          "type": "bytes4"
        }
      ],
      "name": "supportsInterface",
      "outputs": [
        {
          "internalType": "bool",
          "name": "",
          "type": "bool"
        }
      ],
      "stateMutability": "view",
      "type": "function"
    },
    {
      "inputs": [],
      "name": "symbol",
      "outputs": [
        {
          "internalType": "string",
          "name": "",
          "type": "string"
        }
      ],
      "stateMutability": "view",
      "type": "function"
    },
    {
      "inputs": [
        {
          "internalType": "uint256",
          "name": "tokenId",
          "type": "uint256"
        }
      ],
      "name": "tokenURI",
      "outputs": [
        {
          "internalType": "string",
          "name": "",
          "type": "string"
        }
      ],
      "stateMutability": "view",
      "type": "function"
    },
    {
      "inputs": [
        {
          "internalType": "address",
          "name": "from",
          "type": "address"
        },
        {
          "internalType": "address",
          "name": "to",
          "type": "address"
        },
        {
          "internalType": "uint256",
          "name": "tokenId",
          "type": "uint256"
        }
      ],
      "name": "transferFrom",
      "outputs": [],
      "stateMutability": "nonpayable",
      "type": "function"
    }
  ],
  "bytecode": "0x60a06040523480156200001157600080fd5b5060405162002f3f38038062002f3f833981810160405281019062000037919062000306565b82828160009080519060200190620000519291906200007e565b5080600190805190602001906200006a9291906200007e565b505050806080818152505050505062000405565b8280546200008c90620003cf565b90600052602060002090601f016020900481019282620000b05760008555620000fc565b82601f10620000cb57805160ff1916838001178555620000fc565b82800160010185558215620000fc579182015b82811115620000fb578251825591602001919060010190620000de565b5b5090506200010b91906200010f565b5090565b5b808211156200012a57600081600090555060010162000110565b5090565b6000604051905090565b600080fd5b600080fd5b600080fd5b600080fd5b6000601f19601f8301169050919050565b7f4e487b7100000000000000000000000000000000000000000000000000000000600052604160045260246000fd5b62000197826200014c565b810181811067ffffffffffffffff82111715620001b957620001b86200015d565b5b80604052505050565b6000620001ce6200012e565b9050620001dc82826200018c565b919050565b600067ffffffffffffffff821115620001ff57620001fe6200015d565b5b6200020a826200014c565b9050602081019050919050565b60005b83811015620002375780820151818401526020810190506200021a565b8381111562000247576000848401525b50505050565b6000620002646200025e84620001e1565b620001c2565b90508281526020810184848401111562000283576200028262000147565b5b6200029084828562000217565b509392505050565b600082601f830112620002b057620002af62000142565b5b8151620002c28482602086016200024d565b91505092915050565b6000819050919050565b620002e081620002cb565b8114620002ec57600080fd5b50565b6000815190506200030081620002d5565b92915050565b60008060006060848603121562000322576200032162000138565b5b600084015167ffffffffffffffff8111156200034357620003426200013d565b5b620003518682870162000298565b935050602084015167ffffffffffffffff8111156200037557620003746200013d565b5b620003838682870162000298565b92505060406200039686828701620002ef565b9150509250925092565b7f4e487b7100000000000000000000000000000000000000000000000000000000600052602260045260246000fd5b60006002820490506001821680620003e857607f821691505b60208210811415620003ff57620003fe620003a0565b5b50919050565b608051612b176200042860003960008181610b9701526111330152612b176000f3fe608060405234801561001057600080fd5b50600436106101005760003560e01c8063641ce14011610097578063b88d4fde11610066578063b88d4fde146102bd578063c87b56dd146102d9578063e985e9c514610309578063ebf0c7171461033957610100565b8063641ce1401461023757806370a082311461025357806395d89b4114610283578063a22cb465146102a157610100565b806323b872dd116100d357806323b872dd1461019f57806342842e0e146101bb578063630303c6146101d75780636352211e1461020757610100565b806301ffc9a71461010557806306fdde0314610135578063081812fc14610153578063095ea7b314610183575b600080fd5b61011f600480360381019061011a9190611ad2565b610357565b60405161012c9190611b1a565b60405180910390f35b61013d610439565b60405161014a9190611bce565b60405180910390f35b61016d60048036038101906101689190611c26565b6104cb565b60405161017a9190611c94565b60405180910390f35b61019d60048036038101906101989190611cdb565b610511565b005b6101b960048036038101906101b49190611d1b565b610629565b005b6101d560048036038101906101d09190611d1b565b610689565b005b6101f160048036038101906101ec9190611d6e565b6106a9565b6040516101fe9190611b1a565b60405180910390f35b610221600480360381019061021c9190611c26565b6106c9565b60405161022e9190611c94565b60405180910390f35b610251600480360381019061024c9190611e00565b610750565b005b61026d60048036038101906102689190611d6e565b6108d7565b60405161027a9190611e83565b60405180910390f35b61028b61098f565b6040516102989190611bce565b60405180910390f35b6102bb60048036038101906102b69190611eca565b610a21565b005b6102d760048036038101906102d2919061203a565b610a37565b005b6102f360048036038101906102ee9190611c26565b610a99565b6040516103009190611bce565b60405180910390f35b610323600480360381019061031e91906120bd565b610b01565b6040516103309190611b1a565b60405180910390f35b610341610b95565b60405161034e9190612116565b60405180910390f35b60007f80ac58cd000000000000000000000000000000000000000000000000000000007bffffffffffffffffffffffffffffffffffffffffffffffffffffffff1916827bffffffffffffffffffffffffffffffffffffffffffffffffffffffff1916148061042257507f5b5e139f000000000000000000000000000000000000000000000000000000007bffffffffffffffffffffffffffffffffffffffffffffffffffffffff1916827bffffffffffffffffffffffffffffffffffffffffffffffffffffffff1916145b80610432575061043182610bb9565b5b9050919050565b60606000805461044890612160565b80601f016020809104026020016040519081016040528092919081815260200182805461047490612160565b80156104c15780601f10610496576101008083540402835291602001916104c1565b820191906000526020600020905b8154815290600101906020018083116104a457829003601f168201915b5050505050905090565b60006104d682610c23565b6004600083815260200190815260200160002060009054906101000a900473ffffffffffffffffffffffffffffffffffffffff169050919050565b600061051c826106c9565b90508073ffffffffffffffffffffffffffffffffffffffff168373ffffffffffffffffffffffffffffffffffffffff16141561058d576040517f08c379a000000000000000000000000000000000000000000000000000000000815260040161058490612204565b60405180910390fd5b8073ffffffffffffffffffffffffffffffffffffffff166105ac610c6e565b73ffffffffffffffffffffffffffffffffffffffff1614806105db57506105da816105d5610c6e565b610b01565b5b61061a576040517f08c379a000000000000000000000000000000000000000000000000000000000815260040161061190612296565b60405180910390fd5b6106248383610c76565b505050565b61063a610634610c6e565b82610d2f565b610679576040517f08c379a000000000000000000000000000000000000000000000000000000000815260040161067090612328565b60405180910390fd5b610684838383610dc4565b505050565b6106a483838360405180602001604052806000815250610a37565b505050565b60066020528060005260406000206000915054906101000a900460ff1681565b6000806106d5836110be565b9050600073ffffffffffffffffffffffffffffffffffffffff168173ffffffffffffffffffffffffffffffffffffffff161415610747576040517f08c379a000000000000000000000000000000000000000000000000000000000815260040161073e90612394565b60405180910390fd5b80915050919050565b6107a361075c856110fb565b838380806020026020016040519081016040528093929190818152602001838360200280828437600081840152601f19601f8201169050808301925050505050505061112b565b6107e2576040517f08c379a00000000000000000000000000000000000000000000000000000000081526004016107d990612400565b60405180910390fd5b600660008573ffffffffffffffffffffffffffffffffffffffff1673ffffffffffffffffffffffffffffffffffffffff16815260200190815260200160002060009054906101000a900460ff161561086f576040517f08c379a00000000000000000000000000000000000000000000000000000000081526004016108669061246c565b60405180910390fd5b6108798484611160565b6001600660008673ffffffffffffffffffffffffffffffffffffffff1673ffffffffffffffffffffffffffffffffffffffff16815260200190815260200160002060006101000a81548160ff02191690831515021790555050505050565b60008073ffffffffffffffffffffffffffffffffffffffff168273ffffffffffffffffffffffffffffffffffffffff161415610948576040517f08c379a000000000000000000000000000000000000000000000000000000000815260040161093f906124fe565b60405180910390fd5b600360008373ffffffffffffffffffffffffffffffffffffffff1673ffffffffffffffffffffffffffffffffffffffff168152602001908152602001600020549050919050565b60606001805461099e90612160565b80601f01602080910402602001604051908101604052809291908181526020018280546109ca90612160565b8015610a175780601f106109ec57610100808354040283529160200191610a17565b820191906000526020600020905b8154815290600101906020018083116109fa57829003601f168201915b5050505050905090565b610a33610a2c610c6e565b838361137e565b5050565b610a48610a42610c6e565b83610d2f565b610a87576040517f08c379a0000000000000000000000000000000000000000000000000000000008152600401610a7e90612328565b60405180910390fd5b610a93848484846114eb565b50505050565b6060610aa482610c23565b6000610aae611547565b90506000815111610ace5760405180602001604052806000815250610af9565b80610ad88461155e565b604051602001610ae992919061255a565b6040516020818303038152906040525b915050919050565b6000600560008473ffffffffffffffffffffffffffffffffffffffff1673ffffffffffffffffffffffffffffffffffffffff16815260200190815260200160002060008373ffffffffffffffffffffffffffffffffffffffff1673ffffffffffffffffffffffffffffffffffffffff16815260200190815260200160002060009054906101000a900460ff16905092915050565b7f000000000000000000000000000000000000000000000000000000000000000081565b60007f01ffc9a7000000000000000000000000000000000000000000000000000000007bffffffffffffffffffffffffffffffffffffffffffffffffffffffff1916827bffffffffffffffffffffffffffffffffffffffffffffffffffffffff1916149050919050565b610c2c81611636565b610c6b576040517f08c379a0000000000000000000000000000000000000000000000000000000008152600401610c6290612394565b60405180910390fd5b50565b600033905090565b816004600083815260200190815260200160002060006101000a81548173ffffffffffffffffffffffffffffffffffffffff021916908373ffffffffffffffffffffffffffffffffffffffff160217905550808273ffffffffffffffffffffffffffffffffffffffff16610ce9836106c9565b73ffffffffffffffffffffffffffffffffffffffff167f8c5be1e5ebec7d5bd14f71427d1e84f3dd0314c0f7b2291e5b200ac8c7c3b92560405160405180910390a45050565b600080610d3b836106c9565b90508073ffffffffffffffffffffffffffffffffffffffff168473ffffffffffffffffffffffffffffffffffffffff161480610d7d5750610d7c8185610b01565b5b80610dbb57508373ffffffffffffffffffffffffffffffffffffffff16610da3846104cb565b73ffffffffffffffffffffffffffffffffffffffff16145b91505092915050565b8273ffffffffffffffffffffffffffffffffffffffff16610de4826106c9565b73ffffffffffffffffffffffffffffffffffffffff1614610e3a576040517f08c379a0000000000000000000000000000000000000000000000000000000008152600401610e31906125f0565b60405180910390fd5b600073ffffffffffffffffffffffffffffffffffffffff168273ffffffffffffffffffffffffffffffffffffffff161415610eaa576040517f08c379a0000000000000000000000000000000000000000000000000000000008152600401610ea190612682565b60405180910390fd5b610eb78383836001611677565b8273ffffffffffffffffffffffffffffffffffffffff16610ed7826106c9565b73ffffffffffffffffffffffffffffffffffffffff1614610f2d576040517f08c379a0000000000000000000000000000000000000000000000000000000008152600401610f24906125f0565b60405180910390fd5b6004600082815260200190815260200160002060006101000a81549073ffffffffffffffffffffffffffffffffffffffff02191690556001600360008573ffffffffffffffffffffffffffffffffffffffff1673ffffffffffffffffffffffffffffffffffffffff168152602001908152602001600020600082825403925050819055506001600360008473ffffffffffffffffffffffffffffffffffffffff1673ffffffffffffffffffffffffffffffffffffffff16815260200190815260200160002060008282540192505081905550816002600083815260200190815260200160002060006101000a81548173ffffffffffffffffffffffffffffffffffffffff021916908373ffffffffffffffffffffffffffffffffffffffff160217905550808273ffffffffffffffffffffffffffffffffffffffff168473ffffffffffffffffffffffffffffffffffffffff167fddf252ad1be2c89b69c2b068fc378daa952ba7f163c4a11628f55a4df523b3ef60405160405180910390a46110b9838383600161167d565b505050565b60006002600083815260200190815260200160002060009054906101000a900473ffffffffffffffffffffffffffffffffffffffff169050919050565b60008160405160200161110e91906126ea565b604051602081830303815290604052805190602001209050919050565b6000611158827f000000000000000000000000000000000000000000000000000000000000000085611683565b905092915050565b600073ffffffffffffffffffffffffffffffffffffffff168273ffffffffffffffffffffffffffffffffffffffff1614156111d0576040517f08c379a00000000000000000000000000000000000000000000000000000000081526004016111c790612751565b60405180910390fd5b6111d981611636565b15611219576040517f08c379a0000000000000000000000000000000000000000000000000000000008152600401611210906127bd565b60405180910390fd5b611227600083836001611677565b61123081611636565b15611270576040517f08c379a0000000000000000000000000000000000000000000000000000000008152600401611267906127bd565b60405180910390fd5b6001600360008473ffffffffffffffffffffffffffffffffffffffff1673ffffffffffffffffffffffffffffffffffffffff16815260200190815260200160002060008282540192505081905550816002600083815260200190815260200160002060006101000a81548173ffffffffffffffffffffffffffffffffffffffff021916908373ffffffffffffffffffffffffffffffffffffffff160217905550808273ffffffffffffffffffffffffffffffffffffffff16600073ffffffffffffffffffffffffffffffffffffffff167fddf252ad1be2c89b69c2b068fc378daa952ba7f163c4a11628f55a4df523b3ef60405160405180910390a461137a60008383600161167d565b5050565b8173ffffffffffffffffffffffffffffffffffffffff168373ffffffffffffffffffffffffffffffffffffffff1614156113ed576040517f08c379a00000000000000000000000000000000000000000000000000000000081526004016113e490612829565b60405180910390fd5b80600560008573ffffffffffffffffffffffffffffffffffffffff1673ffffffffffffffffffffffffffffffffffffffff16815260200190815260200160002060008473ffffffffffffffffffffffffffffffffffffffff1673ffffffffffffffffffffffffffffffffffffffff16815260200190815260200160002060006101000a81548160ff0219169083151502179055508173ffffffffffffffffffffffffffffffffffffffff168373ffffffffffffffffffffffffffffffffffffffff167f17307eab39ab6107e8899845ad3d59bd9653f200f220920489ca2b5937696c31836040516114de9190611b1a565b60405180910390a3505050565b6114f6848484610dc4565b6115028484848461169a565b611541576040517f08c379a0000000000000000000000000000000000000000000000000000000008152600401611538906128bb565b60405180910390fd5b50505050565b606060405180602001604052806000815250905090565b60606000600161156d84611831565b01905060008167ffffffffffffffff81111561158c5761158b611f0f565b5b6040519080825280601f01601f1916602001820160405280156115be5781602001600182028036833780820191505090505b509050600082602001820190505b60011561162b578080600190039150507f3031323334353637383961626364656600000000000000000000000000000000600a86061a8153600a8581611615576116146128db565b5b04945060008514156116265761162b565b6115cc565b819350505050919050565b60008073ffffffffffffffffffffffffffffffffffffffff16611658836110be565b73ffffffffffffffffffffffffffffffffffffffff1614159050919050565b50505050565b50505050565b6000826116908584611984565b1490509392505050565b60006116bb8473ffffffffffffffffffffffffffffffffffffffff166119da565b15611824578373ffffffffffffffffffffffffffffffffffffffff1663150b7a026116e4610c6e565b8786866040518563ffffffff1660e01b8152600401611706949392919061295f565b602060405180830381600087803b15801561172057600080fd5b505af192505050801561175157506040513d601f19601f8201168201806040525081019061174e91906129c0565b60015b6117d4573d8060008114611781576040519150601f19603f3d011682016040523d82523d6000602084013e611786565b606091505b506000815114156117cc576040517f08c379a00000000000000000000000000000000000000000000000000000000081526004016117c3906128bb565b60405180910390fd5b805181602001fd5b63150b7a0260e01b7bffffffffffffffffffffffffffffffffffffffffffffffffffffffff1916817bffffffffffffffffffffffffffffffffffffffffffffffffffffffff191614915050611829565b600190505b949350505050565b600080600090507a184f03e93ff9f4daa797ed6e38ed64bf6a1f010000000000000000831061188f577a184f03e93ff9f4daa797ed6e38ed64bf6a1f0100000000000000008381611885576118846128db565b5b0492506040810190505b6d04ee2d6d415b85acef810000000083106118cc576d04ee2d6d415b85acef810000000083816118c2576118c16128db565b5b0492506020810190505b662386f26fc1000083106118fb57662386f26fc1000083816118f1576118f06128db565b5b0492506010810190505b6305f5e1008310611924576305f5e100838161191a576119196128db565b5b0492506008810190505b612710831061194957612710838161193f5761193e6128db565b5b0492506004810190505b6064831061196c5760648381611962576119616128db565b5b0492506002810190505b600a831061197b576001810190505b80915050919050565b60008082905060005b84518110156119cf576119ba828683815181106119ad576119ac6129ed565b5b60200260200101516119fd565b915080806119c790612a4b565b91505061198d565b508091505092915050565b6000808273ffffffffffffffffffffffffffffffffffffffff163b119050919050565b6000818310611a34578183604051602001611a19929190612ab5565b60405160208183030381529060405280519060200120611a5e565b8282604051602001611a47929190612ab5565b604051602081830303815290604052805190602001205b905092915050565b6000604051905090565b600080fd5b600080fd5b60007fffffffff0000000000000000000000000000000000000000000000000000000082169050919050565b611aaf81611a7a565b8114611aba57600080fd5b50565b600081359050611acc81611aa6565b92915050565b600060208284031215611ae857611ae7611a70565b5b6000611af684828501611abd565b91505092915050565b60008115159050919050565b611b1481611aff565b82525050565b6000602082019050611b2f6000830184611b0b565b92915050565b600081519050919050565b600082825260208201905092915050565b60005b83811015611b6f578082015181840152602081019050611b54565b83811115611b7e576000848401525b50505050565b6000601f19601f8301169050919050565b6000611ba082611b35565b611baa8185611b40565b9350611bba818560208601611b51565b611bc381611b84565b840191505092915050565b60006020820190508181036000830152611be88184611b95565b905092915050565b6000819050919050565b611c0381611bf0565b8114611c0e57600080fd5b50565b600081359050611c2081611bfa565b92915050565b600060208284031215611c3c57611c3b611a70565b5b6000611c4a84828501611c11565b91505092915050565b600073ffffffffffffffffffffffffffffffffffffffff82169050919050565b6000611c7e82611c53565b9050919050565b611c8e81611c73565b82525050565b6000602082019050611ca96000830184611c85565b92915050565b611cb881611c73565b8114611cc357600080fd5b50565b600081359050611cd581611caf565b92915050565b60008060408385031215611cf257611cf1611a70565b5b6000611d0085828601611cc6565b9250506020611d1185828601611c11565b9150509250929050565b600080600060608486031215611d3457611d33611a70565b5b6000611d4286828701611cc6565b9350506020611d5386828701611cc6565b9250506040611d6486828701611c11565b9150509250925092565b600060208284031215611d8457611d83611a70565b5b6000611d9284828501611cc6565b91505092915050565b600080fd5b600080fd5b600080fd5b60008083601f840112611dc057611dbf611d9b565b5b8235905067ffffffffffffffff811115611ddd57611ddc611da0565b5b602083019150836020820283011115611df957611df8611da5565b5b9250929050565b60008060008060608587031215611e1a57611e19611a70565b5b6000611e2887828801611cc6565b9450506020611e3987828801611c11565b935050604085013567ffffffffffffffff811115611e5a57611e59611a75565b5b611e6687828801611daa565b925092505092959194509250565b611e7d81611bf0565b82525050565b6000602082019050611e986000830184611e74565b92915050565b611ea781611aff565b8114611eb257600080fd5b50565b600081359050611ec481611e9e565b92915050565b60008060408385031215611ee157611ee0611a70565b5b6000611eef85828601611cc6565b9250506020611f0085828601611eb5565b9150509250929050565b600080fd5b7f4e487b7100000000000000000000000000000000000000000000000000000000600052604160045260246000fd5b611f4782611b84565b810181811067ffffffffffffffff82111715611f6657611f65611f0f565b5b80604052505050565b6000611f79611a66565b9050611f858282611f3e565b919050565b600067ffffffffffffffff821115611fa557611fa4611f0f565b5b611fae82611b84565b9050602081019050919050565b82818337600083830152505050565b6000611fdd611fd884611f8a565b611f6f565b905082815260208101848484011115611ff957611ff8611f0a565b5b612004848285611fbb565b509392505050565b600082601f83011261202157612020611d9b565b5b8135612031848260208601611fca565b91505092915050565b6000806000806080858703121561205457612053611a70565b5b600061206287828801611cc6565b945050602061207387828801611cc6565b935050604061208487828801611c11565b925050606085013567ffffffffffffffff8111156120a5576120a4611a75565b5b6120b18782880161200c565b91505092959194509250565b600080604083850312156120d4576120d3611a70565b5b60006120e285828601611cc6565b92505060206120f385828601611cc6565b9150509250929050565b6000819050919050565b612110816120fd565b82525050565b600060208201905061212b6000830184612107565b92915050565b7f4e487b7100000000000000000000000000000000000000000000000000000000600052602260045260246000fd5b6000600282049050600182168061217857607f821691505b6020821081141561218c5761218b612131565b5b50919050565b7f4552433732313a20617070726f76616c20746f2063757272656e74206f776e6560008201527f7200000000000000000000000000000000000000000000000000000000000000602082015250565b60006121ee602183611b40565b91506121f982612192565b604082019050919050565b6000602082019050818103600083015261221d816121e1565b9050919050565b7f4552433732313a20617070726f76652063616c6c6572206973206e6f7420746f60008201527f6b656e206f776e6572206f7220617070726f76656420666f7220616c6c000000602082015250565b6000612280603d83611b40565b915061228b82612224565b604082019050919050565b600060208201905081810360008301526122af81612273565b9050919050565b7f4552433732313a2063616c6c6572206973206e6f7420746f6b656e206f776e6560008201527f72206f7220617070726f76656400000000000000000000000000000000000000602082015250565b6000612312602d83611b40565b915061231d826122b6565b604082019050919050565b6000602082019050818103600083015261234181612305565b9050919050565b7f4552433732313a20696e76616c696420746f6b656e2049440000000000000000600082015250565b600061237e601883611b40565b915061238982612348565b602082019050919050565b600060208201905081810360008301526123ad81612371565b9050919050565b7f496e76616c6964206d65726b6c652070726f6f66000000000000000000000000600082015250565b60006123ea601483611b40565b91506123f5826123b4565b602082019050919050565b60006020820190508181036000830152612419816123dd565b9050919050565b7f416c7265616479206d696e746564210000000000000000000000000000000000600082015250565b6000612456600f83611b40565b915061246182612420565b602082019050919050565b6000602082019050818103600083015261248581612449565b9050919050565b7f4552433732313a2061646472657373207a65726f206973206e6f74206120766160008201527f6c6964206f776e65720000000000000000000000000000000000000000000000602082015250565b60006124e8602983611b40565b91506124f38261248c565b604082019050919050565b60006020820190508181036000830152612517816124db565b9050919050565b600081905092915050565b600061253482611b35565b61253e818561251e565b935061254e818560208601611b51565b80840191505092915050565b60006125668285612529565b91506125728284612529565b91508190509392505050565b7f4552433732313a207472616e736665722066726f6d20696e636f72726563742060008201527f6f776e6572000000000000000000000000000000000000000000000000000000602082015250565b60006125da602583611b40565b91506125e58261257e565b604082019050919050565b60006020820190508181036000830152612609816125cd565b9050919050565b7f4552433732313a207472616e7366657220746f20746865207a65726f2061646460008201527f7265737300000000000000000000000000000000000000000000000000000000602082015250565b600061266c602483611b40565b915061267782612610565b604082019050919050565b6000602082019050818103600083015261269b8161265f565b9050919050565b60008160601b9050919050565b60006126ba826126a2565b9050919050565b60006126cc826126af565b9050919050565b6126e46126df82611c73565b6126c1565b82525050565b60006126f682846126d3565b60148201915081905092915050565b7f4552433732313a206d696e7420746f20746865207a65726f2061646472657373600082015250565b600061273b602083611b40565b915061274682612705565b602082019050919050565b6000602082019050818103600083015261276a8161272e565b9050919050565b7f4552433732313a20746f6b656e20616c7265616479206d696e74656400000000600082015250565b60006127a7601c83611b40565b91506127b282612771565b602082019050919050565b600060208201905081810360008301526127d68161279a565b9050919050565b7f4552433732313a20617070726f766520746f2063616c6c657200000000000000600082015250565b6000612813601983611b40565b915061281e826127dd565b602082019050919050565b6000602082019050818103600083015261284281612806565b9050919050565b7f4552433732313a207472616e7366657220746f206e6f6e20455243373231526560008201527f63656976657220696d706c656d656e7465720000000000000000000000000000602082015250565b60006128a5603283611b40565b91506128b082612849565b604082019050919050565b600060208201905081810360008301526128d481612898565b9050919050565b7f4e487b7100000000000000000000000000000000000000000000000000000000600052601260045260246000fd5b600081519050919050565b600082825260208201905092915050565b60006129318261290a565b61293b8185612915565b935061294b818560208601611b51565b61295481611b84565b840191505092915050565b60006080820190506129746000830187611c85565b6129816020830186611c85565b61298e6040830185611e74565b81810360608301526129a08184612926565b905095945050505050565b6000815190506129ba81611aa6565b92915050565b6000602082840312156129d6576129d5611a70565b5b60006129e4848285016129ab565b91505092915050565b7f4e487b7100000000000000000000000000000000000000000000000000000000600052603260045260246000fd5b7f4e487b7100000000000000000000000000000000000000000000000000000000600052601160045260246000fd5b6000612a5682611bf0565b91507fffffffffffffffffffffffffffffffffffffffffffffffffffffffffffffffff821415612a8957612a88612a1c565b5b600182019050919050565b6000819050919050565b612aaf612aaa826120fd565b612a94565b82525050565b6000612ac18285612a9e565b602082019150612ad18284612a9e565b602082019150819050939250505056fea2646970667358221220129eefe155468865712ecdbbac9b46c8bfc5a85a544981fc4d8f759af261168164736f6c63430008090033",
  "linkReferences": {},
  "deployedLinkReferences": {}
}