{
  "_format": "hh-sol-artifact-1",
  "contractName": "DutchAuction",
  "sourceName": "contracts/DutchAuction.sol",
  "abi": [
    {
      "inputs": [],
      "stateMutability": "nonpayable",
      "type": "constructor"
    },
    {
      "anonymous": false,
      "inputs": [
        {
          "indexed": true,
          "internalType": "address",
          "name": "owner",
          "type": "address"
        },
        {
          "indexed": true,
          "internalType": "address",
          "name": "approved",
          "type": "address"
        },
        {
          "indexed": true,
          "internalType": "uint256",
          "name": "tokenId",
          "type": "uint256"
        }
      ],
      "name": "Approval",
      "type": "event"
    },
    {
      "anonymous": false,
      "inputs": [
        {
          "indexed": true,
          "internalType": "address",
          "name": "owner",
          "type": "address"
        },
        {
          "indexed": true,
          "internalType": "address",
          "name": "operator",
          "type": "address"
        },
        {
          "indexed": false,
          "internalType": "bool",
          "name": "approved",
          "type": "bool"
        }
      ],
      "name": "ApprovalForAll",
      "type": "event"
    },
    {
      "anonymous": false,
      "inputs": [
        {
          "indexed": true,
          "internalType": "address",
          "name": "previousOwner",
          "type": "address"
        },
        {
          "indexed": true,
          "internalType": "address",
          "name": "newOwner",
          "type": "address"
        }
      ],
      "name": "OwnershipTransferred",
      "type": "event"
    },
    {
      "anonymous": false,
      "inputs": [
        {
          "indexed": true,
          "internalType": "address",
          "name": "from",
          "type": "address"
        },
        {
          "indexed": true,
          "internalType": "address",
          "name": "to",
          "type": "address"
        },
        {
          "indexed": true,
          "internalType": "uint256",
          "name": "tokenId",
          "type": "uint256"
        }
      ],
      "name": "Transfer",
      "type": "event"
    },
    {
      "inputs": [],
      "name": "AUCTION_DROP_INTERVAL",
      "outputs": [
        {
          "internalType": "uint256",
          "name": "",
          "type": "uint256"
        }
      ],
      "stateMutability": "view",
      "type": "function"
    },
    {
      "inputs": [],
      "name": "AUCTION_DROP_PER_STEP",
      "outputs": [
        {
          "internalType": "uint256",
          "name": "",
          "type": "uint256"
        }
      ],
      "stateMutability": "view",
      "type": "function"
    },
    {
      "inputs": [],
      "name": "AUCTION_END_PRICE",
      "outputs": [
        {
          "internalType": "uint256",
          "name": "",
          "type": "uint256"
        }
      ],
      "stateMutability": "view",
      "type": "function"
    },
    {
      "inputs": [],
      "name": "AUCTION_START_PRICE",
      "outputs": [
        {
          "internalType": "uint256",
          "name": "",
          "type": "uint256"
        }
      ],
      "stateMutability": "view",
      "type": "function"
    },
    {
      "inputs": [],
      "name": "AUCTION_TIME",
      "outputs": [
        {
          "internalType": "uint256",
          "name": "",
          "type": "uint256"
        }
      ],
      "stateMutability": "view",
      "type": "function"
    },
    {
      "inputs": [],
      "name": "COLLECTOIN_SIZE",
      "outputs": [
        {
          "internalType": "uint256",
          "name": "",
          "type": "uint256"
        }
      ],
      "stateMutability": "view",
      "type": "function"
    },
    {
      "inputs": [
        {
          "internalType": "address",
          "name": "to",
          "type": "address"
        },
        {
          "internalType": "uint256",
          "name": "tokenId",
          "type": "uint256"
        }
      ],
      "name": "approve",
      "outputs": [],
      "stateMutability": "nonpayable",
      "type": "function"
    },
    {
      "inputs": [
        {
          "internalType": "uint256",
          "name": "quantity",
          "type": "uint256"
        }
      ],
      "name": "auctionMint",
      "outputs": [],
      "stateMutability": "payable",
      "type": "function"
    },
    {
      "inputs": [],
      "name": "auctionStartTime",
      "outputs": [
        {
          "internalType": "uint256",
          "name": "",
          "type": "uint256"
        }
      ],
      "stateMutability": "view",
      "type": "function"
    },
    {
      "inputs": [
        {
          "internalType": "address",
          "name": "owner",
          "type": "address"
        }
      ],
      "name": "balanceOf",
      "outputs": [
        {
          "internalType": "uint256",
          "name": "",
          "type": "uint256"
        }
      ],
      "stateMutability": "view",
      "type": "function"
    },
    {
      "inputs": [
        {
          "internalType": "uint256",
          "name": "tokenId",
          "type": "uint256"
        }
      ],
      "name": "getApproved",
      "outputs": [
        {
          "internalType": "address",
          "name": "",
          "type": "address"
        }
      ],
      "stateMutability": "view",
      "type": "function"
    },
    {
      "inputs": [],
      "name": "getAuctionPrice",
      "outputs": [
        {
          "internalType": "uint256",
          "name": "",
          "type": "uint256"
        }
      ],
      "stateMutability": "view",
      "type": "function"
    },
    {
      "inputs": [
        {
          "internalType": "address",
          "name": "owner",
          "type": "address"
        },
        {
          "internalType": "address",
          "name": "operator",
          "type": "address"
        }
      ],
      "name": "isApprovedForAll",
      "outputs": [
        {
          "internalType": "bool",
          "name": "",
          "type": "bool"
        }
      ],
      "stateMutability": "view",
      "type": "function"
    },
    {
      "inputs": [],
      "name": "name",
      "outputs": [
        {
          "internalType": "string",
          "name": "",
          "type": "string"
        }
      ],
      "stateMutability": "view",
      "type": "function"
    },
    {
      "inputs": [],
      "name": "owner",
      "outputs": [
        {
          "internalType": "address",
          "name": "",
          "type": "address"
        }
      ],
      "stateMutability": "view",
      "type": "function"
    },
    {
      "inputs": [
        {
          "internalType": "uint256",
          "name": "tokenId",
          "type": "uint256"
        }
      ],
      "name": "ownerOf",
      "outputs": [
        {
          "internalType": "address",
          "name": "",
          "type": "address"
        }
      ],
      "stateMutability": "view",
      "type": "function"
    },
    {
      "inputs": [],
      "name": "renounceOwnership",
      "outputs": [],
      "stateMutability": "nonpayable",
      "type": "function"
    },
    {
      "inputs": [
        {
          "internalType": "address",
          "name": "from",
          "type": "address"
        },
        {
          "internalType": "address",
          "name": "to",
          "type": "address"
        },
        {
          "internalType": "uint256",
          "name": "tokenId",
          "type": "uint256"
        }
      ],
      "name": "safeTransferFrom",
      "outputs": [],
      "stateMutability": "nonpayable",
      "type": "function"
    },
    {
      "inputs": [
        {
          "internalType": "address",
          "name": "from",
          "type": "address"
        },
        {
          "internalType": "address",
          "name": "to",
          "type": "address"
        },
        {
          "internalType": "uint256",
          "name": "tokenId",
          "type": "uint256"
        },
        {
          "internalType": "bytes",
          "name": "data",
          "type": "bytes"
        }
      ],
      "name": "safeTransferFrom",
      "outputs": [],
      "stateMutability": "nonpayable",
      "type": "function"
    },
    {
      "inputs": [
        {
          "internalType": "address",
          "name": "operator",
          "type": "address"
        },
        {
          "internalType": "bool",
          "name": "approved",
          "type": "bool"
        }
      ],
      "name": "setApprovalForAll",
      "outputs": [],
      "stateMutability": "nonpayable",
      "type": "function"
    },
    {
      "inputs": [
        {
          "internalType": "uint32",
          "name": "timestamp",
          "type": "uint32"
        }
      ],
      "name": "setAuctionStartTime",
      "outputs": [],
      "stateMutability": "nonpayable",
      "type": "function"
    },
    {
      "inputs": [
        {
          "internalType": "string",
          "name": "baseURI",
          "type": "string"
        }
      ],
      "name": "setBaseURI",
      "outputs": [],
      "stateMutability": "nonpayable",
      "type": "function"
    },
    {
      "inputs": [
        {
          "internalType": "bytes4",
          "name": "interfaceId",
          "type": "bytes4"
        }
      ],
      "name": "supportsInterface",
      "outputs": [
        {
          "internalType": "bool",
          "name": "",
          "type": "bool"
        }
      ],
      "stateMutability": "view",
      "type": "function"
    },
    {
      "inputs": [],
      "name": "symbol",
      "outputs": [
        {
          "internalType": "string",
          "name": "",
          "type": "string"
        }
      ],
      "stateMutability": "view",
      "type": "function"
    },
    {
      "inputs": [
        {
          "internalType": "uint256",
          "name": "tokenId",
          "type": "uint256"
        }
      ],
      "name": "tokenURI",
      "outputs": [
        {
          "internalType": "string",
          "name": "",
          "type": "string"
        }
      ],
      "stateMutability": "view",
      "type": "function"
    },
    {
      "inputs": [],
      "name": "totalSupply",
      "outputs": [
        {
          "internalType": "uint256",
          "name": "",
          "type": "uint256"
        }
      ],
      "stateMutability": "view",
      "type": "function"
    },
    {
      "inputs": [
        {
          "internalType": "address",
          "name": "from",
          "type": "address"
        },
        {
          "internalType": "address",
          "name": "to",
          "type": "address"
        },
        {
          "internalType": "uint256",
          "name": "tokenId",
          "type": "uint256"
        }
      ],
      "name": "transferFrom",
      "outputs": [],
      "stateMutability": "nonpayable",
      "type": "function"
    },
    {
      "inputs": [
        {
          "internalType": "address",
          "name": "newOwner",
          "type": "address"
        }
      ],
      "name": "transferOwnership",
      "outputs": [],
      "stateMutability": "nonpayable",
      "type": "function"
    },
    {
      "inputs": [],
      "name": "withdrawMoney",
      "outputs": [],
      "stateMutability": "nonpayable",
      "type": "function"
    }
  ],
  "bytecode": "0x60806040523480156200001157600080fd5b506040518060400160405280601181526020017f57544620447574636820417563746f696e0000000000000000000000000000008152506040518060400160405280601181526020017f57544620447574636820417563746f696e0000000000000000000000000000008152506200009e62000092620000df60201b60201c565b620000e760201b60201c565b8160019080519060200190620000b6929190620001ab565b508060029080519060200190620000cf929190620001ab565b50505042600781905550620002c0565b600033905090565b60008060009054906101000a900473ffffffffffffffffffffffffffffffffffffffff169050816000806101000a81548173ffffffffffffffffffffffffffffffffffffffff021916908373ffffffffffffffffffffffffffffffffffffffff1602179055508173ffffffffffffffffffffffffffffffffffffffff168173ffffffffffffffffffffffffffffffffffffffff167f8be0079c531659141344cd1fd0a4f28419497f9722a3daafe3b4186f6b6457e060405160405180910390a35050565b828054620001b9906200028a565b90600052602060002090601f016020900481019282620001dd576000855562000229565b82601f10620001f857805160ff191683800117855562000229565b8280016001018555821562000229579182015b82811115620002285782518255916020019190600101906200020b565b5b5090506200023891906200023c565b5090565b5b80821115620002575760008160009055506001016200023d565b5090565b7f4e487b7100000000000000000000000000000000000000000000000000000000600052602260045260246000fd5b60006002820490506001821680620002a357607f821691505b60208210811415620002ba57620002b96200025b565b5b50919050565b61354080620002d06000396000f3fe6080604052600436106101c25760003560e01c80636352211e116100f7578063ac44600211610095578063e592301a11610064578063e592301a1461060f578063e985e9c51461063a578063eb54f9ec14610677578063f2fde38b146106a2576101c2565b8063ac44600214610567578063b88d4fde1461057e578063c87b56dd146105a7578063caf8a6d1146105e4576101c2565b80637a1c4a56116100d15780637a1c4a56146104bd5780638da5cb5b146104e857806395d89b4114610513578063a22cb4651461053e576101c2565b80636352211e1461042c57806370a0823114610469578063715018a6146104a6576101c2565b8063327658e3116101645780634d3554c31161013e5780634d3554c31461039157806355f804b3146103ad57806359f369fe146103d65780635cae01d314610401576101c2565b8063327658e31461031257806342842e0e1461033d5780634bd25c6f14610366576101c2565b8063081812fc116101a0578063081812fc14610258578063095ea7b31461029557806318160ddd146102be57806323b872dd146102e9576101c2565b806301ffc9a7146101c75780630697346f1461020457806306fdde031461022d575b600080fd5b3480156101d357600080fd5b506101ee60048036038101906101e9919061224f565b6106cb565b6040516101fb9190612297565b60405180910390f35b34801561021057600080fd5b5061022b600480360381019061022691906122ee565b6107ad565b005b34801561023957600080fd5b506102426107c5565b60405161024f91906123b4565b60405180910390f35b34801561026457600080fd5b5061027f600480360381019061027a919061240c565b610857565b60405161028c919061247a565b60405180910390f35b3480156102a157600080fd5b506102bc60048036038101906102b791906124c1565b61089d565b005b3480156102ca57600080fd5b506102d36109b5565b6040516102e09190612510565b60405180910390f35b3480156102f557600080fd5b50610310600480360381019061030b919061252b565b6109c2565b005b34801561031e57600080fd5b50610327610a22565b6040516103349190612510565b60405180910390f35b34801561034957600080fd5b50610364600480360381019061035f919061252b565b610a28565b005b34801561037257600080fd5b5061037b610a48565b6040516103889190612510565b60405180910390f35b6103ab60048036038101906103a6919061240c565b610b02565b005b3480156103b957600080fd5b506103d460048036038101906103cf91906125e3565b610ca9565b005b3480156103e257600080fd5b506103eb610cc7565b6040516103f89190612510565b60405180910390f35b34801561040d57600080fd5b50610416610cff565b6040516104239190612510565b60405180910390f35b34801561043857600080fd5b50610453600480360381019061044e919061240c565b610d04565b604051610460919061247a565b60405180910390f35b34801561047557600080fd5b50610490600480360381019061048b9190612630565b610d8b565b60405161049d9190612510565b60405180910390f35b3480156104b257600080fd5b506104bb610e43565b005b3480156104c957600080fd5b506104d2610e57565b6040516104df9190612510565b60405180910390f35b3480156104f457600080fd5b506104fd610e63565b60405161050a919061247a565b60405180910390f35b34801561051f57600080fd5b50610528610e8c565b60405161053591906123b4565b60405180910390f35b34801561054a57600080fd5b5061056560048036038101906105609190612689565b610f1e565b005b34801561057357600080fd5b5061057c610f34565b005b34801561058a57600080fd5b506105a560048036038101906105a091906127f9565b610feb565b005b3480156105b357600080fd5b506105ce60048036038101906105c9919061240c565b61104d565b6040516105db91906123b4565b60405180910390f35b3480156105f057600080fd5b506105f96110b5565b6040516106069190612510565b60405180910390f35b34801561061b57600080fd5b506106246110c1565b6040516106319190612510565b60405180910390f35b34801561064657600080fd5b50610661600480360381019061065c919061287c565b6110c7565b60405161066e9190612297565b60405180910390f35b34801561068357600080fd5b5061068c61115b565b6040516106999190612510565b60405180910390f35b3480156106ae57600080fd5b506106c960048036038101906106c49190612630565b611161565b005b60007f80ac58cd000000000000000000000000000000000000000000000000000000007bffffffffffffffffffffffffffffffffffffffffffffffffffffffff1916827bffffffffffffffffffffffffffffffffffffffffffffffffffffffff1916148061079657507f5b5e139f000000000000000000000000000000000000000000000000000000007bffffffffffffffffffffffffffffffffffffffffffffffffffffffff1916827bffffffffffffffffffffffffffffffffffffffffffffffffffffffff1916145b806107a657506107a5826111e5565b5b9050919050565b6107b561124f565b8063ffffffff1660078190555050565b6060600180546107d4906128eb565b80601f0160208091040260200160405190810160405280929190818152602001828054610800906128eb565b801561084d5780601f106108225761010080835404028352916020019161084d565b820191906000526020600020905b81548152906001019060200180831161083057829003601f168201915b5050505050905090565b6000610862826112cd565b6005600083815260200190815260200160002060009054906101000a900473ffffffffffffffffffffffffffffffffffffffff169050919050565b60006108a882610d04565b90508073ffffffffffffffffffffffffffffffffffffffff168373ffffffffffffffffffffffffffffffffffffffff161415610919576040517f08c379a00000000000000000000000000000000000000000000000000000000081526004016109109061298f565b60405180910390fd5b8073ffffffffffffffffffffffffffffffffffffffff16610938611318565b73ffffffffffffffffffffffffffffffffffffffff161480610967575061096681610961611318565b6110c7565b5b6109a6576040517f08c379a000000000000000000000000000000000000000000000000000000000815260040161099d90612a21565b60405180910390fd5b6109b08383611320565b505050565b6000600980549050905090565b6109d36109cd611318565b826113d9565b610a12576040517f08c379a0000000000000000000000000000000000000000000000000000000008152600401610a0990612ab3565b60405180910390fd5b610a1d83838361146e565b505050565b61271081565b610a4383838360405180602001604052806000815250610feb565b505050565b6000600754421015610a6457670de0b6b3a76400009050610aff565b61025860075442610a759190612b02565b10610a8a5767016345785d8a00009050610aff565b6000603c60075442610a9c9190612b02565b610aa69190612b65565b9050603c610258610ab79190612b65565b67016345785d8a0000670de0b6b3a7640000610ad39190612b02565b610add9190612b65565b81610ae89190612b96565b670de0b6b3a7640000610afb9190612b02565b9150505b90565b6000600754905060008114158015610b1a5750804210155b610b59576040517f08c379a0000000000000000000000000000000000000000000000000000000008152600401610b5090612c3c565b60405180910390fd5b61271082610b656109b5565b610b6f9190612c5c565b1115610bb0576040517f08c379a0000000000000000000000000000000000000000000000000000000008152600401610ba790612d4a565b60405180910390fd5b600082610bbb610a48565b610bc59190612b96565b905080341015610c0a576040517f08c379a0000000000000000000000000000000000000000000000000000000008152600401610c0190612db6565b60405180910390fd5b60005b83811015610c48576000610c1f6109b5565b9050610c2b3382611768565b610c3481611986565b508080610c4090612dd6565b915050610c0d565b5080341115610ca4573373ffffffffffffffffffffffffffffffffffffffff166108fc8234610c779190612b02565b9081150290604051600060405180830381858888f19350505050158015610ca2573d6000803e3d6000fd5b505b505050565b610cb161124f565b818160089190610cc2929190612140565b505050565b603c610258610cd69190612b65565b67016345785d8a0000670de0b6b3a7640000610cf29190612b02565b610cfc9190612b65565b81565b603c81565b600080610d10836119b2565b9050600073ffffffffffffffffffffffffffffffffffffffff168173ffffffffffffffffffffffffffffffffffffffff161415610d82576040517f08c379a0000000000000000000000000000000000000000000000000000000008152600401610d7990612e6b565b60405180910390fd5b80915050919050565b60008073ffffffffffffffffffffffffffffffffffffffff168273ffffffffffffffffffffffffffffffffffffffff161415610dfc576040517f08c379a0000000000000000000000000000000000000000000000000000000008152600401610df390612efd565b60405180910390fd5b600460008373ffffffffffffffffffffffffffffffffffffffff1673ffffffffffffffffffffffffffffffffffffffff168152602001908152602001600020549050919050565b610e4b61124f565b610e5560006119ef565b565b670de0b6b3a764000081565b60008060009054906101000a900473ffffffffffffffffffffffffffffffffffffffff16905090565b606060028054610e9b906128eb565b80601f0160208091040260200160405190810160405280929190818152602001828054610ec7906128eb565b8015610f145780601f10610ee957610100808354040283529160200191610f14565b820191906000526020600020905b815481529060010190602001808311610ef757829003601f168201915b5050505050905090565b610f30610f29611318565b8383611ab3565b5050565b610f3c61124f565b60003373ffffffffffffffffffffffffffffffffffffffff1647604051610f6290612f4e565b60006040518083038185875af1925050503d8060008114610f9f576040519150601f19603f3d011682016040523d82523d6000602084013e610fa4565b606091505b5050905080610fe8576040517f08c379a0000000000000000000000000000000000000000000000000000000008152600401610fdf90612faf565b60405180910390fd5b50565b610ffc610ff6611318565b836113d9565b61103b576040517f08c379a000000000000000000000000000000000000000000000000000000000815260040161103290612ab3565b60405180910390fd5b61104784848484611c20565b50505050565b6060611058826112cd565b6000611062611c7c565b9050600081511161108257604051806020016040528060008152506110ad565b8061108c84611d0e565b60405160200161109d92919061300b565b6040516020818303038152906040525b915050919050565b67016345785d8a000081565b61025881565b6000600660008473ffffffffffffffffffffffffffffffffffffffff1673ffffffffffffffffffffffffffffffffffffffff16815260200190815260200160002060008373ffffffffffffffffffffffffffffffffffffffff1673ffffffffffffffffffffffffffffffffffffffff16815260200190815260200160002060009054906101000a900460ff16905092915050565b60075481565b61116961124f565b600073ffffffffffffffffffffffffffffffffffffffff168173ffffffffffffffffffffffffffffffffffffffff1614156111d9576040517f08c379a00000000000000000000000000000000000000000000000000000000081526004016111d0906130a1565b60405180910390fd5b6111e2816119ef565b50565b60007f01ffc9a7000000000000000000000000000000000000000000000000000000007bffffffffffffffffffffffffffffffffffffffffffffffffffffffff1916827bffffffffffffffffffffffffffffffffffffffffffffffffffffffff1916149050919050565b611257611318565b73ffffffffffffffffffffffffffffffffffffffff16611275610e63565b73ffffffffffffffffffffffffffffffffffffffff16146112cb576040517f08c379a00000000000000000000000000000000000000000000000000000000081526004016112c29061310d565b60405180910390fd5b565b6112d681611de6565b611315576040517f08c379a000000000000000000000000000000000000000000000000000000000815260040161130c90612e6b565b60405180910390fd5b50565b600033905090565b816005600083815260200190815260200160002060006101000a81548173ffffffffffffffffffffffffffffffffffffffff021916908373ffffffffffffffffffffffffffffffffffffffff160217905550808273ffffffffffffffffffffffffffffffffffffffff1661139383610d04565b73ffffffffffffffffffffffffffffffffffffffff167f8c5be1e5ebec7d5bd14f71427d1e84f3dd0314c0f7b2291e5b200ac8c7c3b92560405160405180910390a45050565b6000806113e583610d04565b90508073ffffffffffffffffffffffffffffffffffffffff168473ffffffffffffffffffffffffffffffffffffffff161480611427575061142681856110c7565b5b8061146557508373ffffffffffffffffffffffffffffffffffffffff1661144d84610857565b73ffffffffffffffffffffffffffffffffffffffff16145b91505092915050565b8273ffffffffffffffffffffffffffffffffffffffff1661148e82610d04565b73ffffffffffffffffffffffffffffffffffffffff16146114e4576040517f08c379a00000000000000000000000000000000000000000000000000000000081526004016114db9061319f565b60405180910390fd5b600073ffffffffffffffffffffffffffffffffffffffff168273ffffffffffffffffffffffffffffffffffffffff161415611554576040517f08c379a000000000000000000000000000000000000000000000000000000000815260040161154b90613231565b60405180910390fd5b6115618383836001611e27565b8273ffffffffffffffffffffffffffffffffffffffff1661158182610d04565b73ffffffffffffffffffffffffffffffffffffffff16146115d7576040517f08c379a00000000000000000000000000000000000000000000000000000000081526004016115ce9061319f565b60405180910390fd5b6005600082815260200190815260200160002060006101000a81549073ffffffffffffffffffffffffffffffffffffffff02191690556001600460008573ffffffffffffffffffffffffffffffffffffffff1673ffffffffffffffffffffffffffffffffffffffff168152602001908152602001600020600082825403925050819055506001600460008473ffffffffffffffffffffffffffffffffffffffff1673ffffffffffffffffffffffffffffffffffffffff16815260200190815260200160002060008282540192505081905550816003600083815260200190815260200160002060006101000a81548173ffffffffffffffffffffffffffffffffffffffff021916908373ffffffffffffffffffffffffffffffffffffffff160217905550808273ffffffffffffffffffffffffffffffffffffffff168473ffffffffffffffffffffffffffffffffffffffff167fddf252ad1be2c89b69c2b068fc378daa952ba7f163c4a11628f55a4df523b3ef60405160405180910390a46117638383836001611e2d565b505050565b600073ffffffffffffffffffffffffffffffffffffffff168273ffffffffffffffffffffffffffffffffffffffff1614156117d8576040517f08c379a00000000000000000000000000000000000000000000000000000000081526004016117cf9061329d565b60405180910390fd5b6117e181611de6565b15611821576040517f08c379a000000000000000000000000000000000000000000000000000000000815260040161181890613309565b60405180910390fd5b61182f600083836001611e27565b61183881611de6565b15611878576040517f08c379a000000000000000000000000000000000000000000000000000000000815260040161186f90613309565b60405180910390fd5b6001600460008473ffffffffffffffffffffffffffffffffffffffff1673ffffffffffffffffffffffffffffffffffffffff16815260200190815260200160002060008282540192505081905550816003600083815260200190815260200160002060006101000a81548173ffffffffffffffffffffffffffffffffffffffff021916908373ffffffffffffffffffffffffffffffffffffffff160217905550808273ffffffffffffffffffffffffffffffffffffffff16600073ffffffffffffffffffffffffffffffffffffffff167fddf252ad1be2c89b69c2b068fc378daa952ba7f163c4a11628f55a4df523b3ef60405160405180910390a4611982600083836001611e2d565b5050565b600981908060018154018082558091505060019003906000526020600020016000909190919091505550565b60006003600083815260200190815260200160002060009054906101000a900473ffffffffffffffffffffffffffffffffffffffff169050919050565b60008060009054906101000a900473ffffffffffffffffffffffffffffffffffffffff169050816000806101000a81548173ffffffffffffffffffffffffffffffffffffffff021916908373ffffffffffffffffffffffffffffffffffffffff1602179055508173ffffffffffffffffffffffffffffffffffffffff168173ffffffffffffffffffffffffffffffffffffffff167f8be0079c531659141344cd1fd0a4f28419497f9722a3daafe3b4186f6b6457e060405160405180910390a35050565b8173ffffffffffffffffffffffffffffffffffffffff168373ffffffffffffffffffffffffffffffffffffffff161415611b22576040517f08c379a0000000000000000000000000000000000000000000000000000000008152600401611b1990613375565b60405180910390fd5b80600660008573ffffffffffffffffffffffffffffffffffffffff1673ffffffffffffffffffffffffffffffffffffffff16815260200190815260200160002060008473ffffffffffffffffffffffffffffffffffffffff1673ffffffffffffffffffffffffffffffffffffffff16815260200190815260200160002060006101000a81548160ff0219169083151502179055508173ffffffffffffffffffffffffffffffffffffffff168373ffffffffffffffffffffffffffffffffffffffff167f17307eab39ab6107e8899845ad3d59bd9653f200f220920489ca2b5937696c3183604051611c139190612297565b60405180910390a3505050565b611c2b84848461146e565b611c3784848484611e33565b611c76576040517f08c379a0000000000000000000000000000000000000000000000000000000008152600401611c6d90613407565b60405180910390fd5b50505050565b606060088054611c8b906128eb565b80601f0160208091040260200160405190810160405280929190818152602001828054611cb7906128eb565b8015611d045780601f10611cd957610100808354040283529160200191611d04565b820191906000526020600020905b815481529060010190602001808311611ce757829003601f168201915b5050505050905090565b606060006001611d1d84611fca565b01905060008167ffffffffffffffff811115611d3c57611d3b6126ce565b5b6040519080825280601f01601f191660200182016040528015611d6e5781602001600182028036833780820191505090505b509050600082602001820190505b600115611ddb578080600190039150507f3031323334353637383961626364656600000000000000000000000000000000600a86061a8153600a8581611dc557611dc4612b36565b5b0494506000851415611dd657611ddb565b611d7c565b819350505050919050565b60008073ffffffffffffffffffffffffffffffffffffffff16611e08836119b2565b73ffffffffffffffffffffffffffffffffffffffff1614159050919050565b50505050565b50505050565b6000611e548473ffffffffffffffffffffffffffffffffffffffff1661211d565b15611fbd578373ffffffffffffffffffffffffffffffffffffffff1663150b7a02611e7d611318565b8786866040518563ffffffff1660e01b8152600401611e9f949392919061347c565b602060405180830381600087803b158015611eb957600080fd5b505af1925050508015611eea57506040513d601f19601f82011682018060405250810190611ee791906134dd565b60015b611f6d573d8060008114611f1a576040519150601f19603f3d011682016040523d82523d6000602084013e611f1f565b606091505b50600081511415611f65576040517f08c379a0000000000000000000000000000000000000000000000000000000008152600401611f5c90613407565b60405180910390fd5b805181602001fd5b63150b7a0260e01b7bffffffffffffffffffffffffffffffffffffffffffffffffffffffff1916817bffffffffffffffffffffffffffffffffffffffffffffffffffffffff191614915050611fc2565b600190505b949350505050565b600080600090507a184f03e93ff9f4daa797ed6e38ed64bf6a1f0100000000000000008310612028577a184f03e93ff9f4daa797ed6e38ed64bf6a1f010000000000000000838161201e5761201d612b36565b5b0492506040810190505b6d04ee2d6d415b85acef81000000008310612065576d04ee2d6d415b85acef8100000000838161205b5761205a612b36565b5b0492506020810190505b662386f26fc10000831061209457662386f26fc10000838161208a57612089612b36565b5b0492506010810190505b6305f5e10083106120bd576305f5e10083816120b3576120b2612b36565b5b0492506008810190505b61271083106120e25761271083816120d8576120d7612b36565b5b0492506004810190505b6064831061210557606483816120fb576120fa612b36565b5b0492506002810190505b600a8310612114576001810190505b80915050919050565b6000808273ffffffffffffffffffffffffffffffffffffffff163b119050919050565b82805461214c906128eb565b90600052602060002090601f01602090048101928261216e57600085556121b5565b82601f1061218757803560ff19168380011785556121b5565b828001600101855582156121b5579182015b828111156121b4578235825591602001919060010190612199565b5b5090506121c291906121c6565b5090565b5b808211156121df5760008160009055506001016121c7565b5090565b6000604051905090565b600080fd5b600080fd5b60007fffffffff0000000000000000000000000000000000000000000000000000000082169050919050565b61222c816121f7565b811461223757600080fd5b50565b60008135905061224981612223565b92915050565b600060208284031215612265576122646121ed565b5b60006122738482850161223a565b91505092915050565b60008115159050919050565b6122918161227c565b82525050565b60006020820190506122ac6000830184612288565b92915050565b600063ffffffff82169050919050565b6122cb816122b2565b81146122d657600080fd5b50565b6000813590506122e8816122c2565b92915050565b600060208284031215612304576123036121ed565b5b6000612312848285016122d9565b91505092915050565b600081519050919050565b600082825260208201905092915050565b60005b8381101561235557808201518184015260208101905061233a565b83811115612364576000848401525b50505050565b6000601f19601f8301169050919050565b60006123868261231b565b6123908185612326565b93506123a0818560208601612337565b6123a98161236a565b840191505092915050565b600060208201905081810360008301526123ce818461237b565b905092915050565b6000819050919050565b6123e9816123d6565b81146123f457600080fd5b50565b600081359050612406816123e0565b92915050565b600060208284031215612422576124216121ed565b5b6000612430848285016123f7565b91505092915050565b600073ffffffffffffffffffffffffffffffffffffffff82169050919050565b600061246482612439565b9050919050565b61247481612459565b82525050565b600060208201905061248f600083018461246b565b92915050565b61249e81612459565b81146124a957600080fd5b50565b6000813590506124bb81612495565b92915050565b600080604083850312156124d8576124d76121ed565b5b60006124e6858286016124ac565b92505060206124f7858286016123f7565b9150509250929050565b61250a816123d6565b82525050565b60006020820190506125256000830184612501565b92915050565b600080600060608486031215612544576125436121ed565b5b6000612552868287016124ac565b9350506020612563868287016124ac565b9250506040612574868287016123f7565b9150509250925092565b600080fd5b600080fd5b600080fd5b60008083601f8401126125a3576125a261257e565b5b8235905067ffffffffffffffff8111156125c0576125bf612583565b5b6020830191508360018202830111156125dc576125db612588565b5b9250929050565b600080602083850312156125fa576125f96121ed565b5b600083013567ffffffffffffffff811115612618576126176121f2565b5b6126248582860161258d565b92509250509250929050565b600060208284031215612646576126456121ed565b5b6000612654848285016124ac565b91505092915050565b6126668161227c565b811461267157600080fd5b50565b6000813590506126838161265d565b92915050565b600080604083850312156126a05761269f6121ed565b5b60006126ae858286016124ac565b92505060206126bf85828601612674565b9150509250929050565b600080fd5b7f4e487b7100000000000000000000000000000000000000000000000000000000600052604160045260246000fd5b6127068261236a565b810181811067ffffffffffffffff82111715612725576127246126ce565b5b80604052505050565b60006127386121e3565b905061274482826126fd565b919050565b600067ffffffffffffffff821115612764576127636126ce565b5b61276d8261236a565b9050602081019050919050565b82818337600083830152505050565b600061279c61279784612749565b61272e565b9050828152602081018484840111156127b8576127b76126c9565b5b6127c384828561277a565b509392505050565b600082601f8301126127e0576127df61257e565b5b81356127f0848260208601612789565b91505092915050565b60008060008060808587031215612813576128126121ed565b5b6000612821878288016124ac565b9450506020612832878288016124ac565b9350506040612843878288016123f7565b925050606085013567ffffffffffffffff811115612864576128636121f2565b5b612870878288016127cb565b91505092959194509250565b60008060408385031215612893576128926121ed565b5b60006128a1858286016124ac565b92505060206128b2858286016124ac565b9150509250929050565b7f4e487b7100000000000000000000000000000000000000000000000000000000600052602260045260246000fd5b6000600282049050600182168061290357607f821691505b60208210811415612917576129166128bc565b5b50919050565b7f4552433732313a20617070726f76616c20746f2063757272656e74206f776e6560008201527f7200000000000000000000000000000000000000000000000000000000000000602082015250565b6000612979602183612326565b91506129848261291d565b604082019050919050565b600060208201905081810360008301526129a88161296c565b9050919050565b7f4552433732313a20617070726f76652063616c6c6572206973206e6f7420746f60008201527f6b656e206f776e6572206f7220617070726f76656420666f7220616c6c000000602082015250565b6000612a0b603d83612326565b9150612a16826129af565b604082019050919050565b60006020820190508181036000830152612a3a816129fe565b9050919050565b7f4552433732313a2063616c6c6572206973206e6f7420746f6b656e206f776e6560008201527f72206f7220617070726f76656400000000000000000000000000000000000000602082015250565b6000612a9d602d83612326565b9150612aa882612a41565b604082019050919050565b60006020820190508181036000830152612acc81612a90565b9050919050565b7f4e487b7100000000000000000000000000000000000000000000000000000000600052601160045260246000fd5b6000612b0d826123d6565b9150612b18836123d6565b925082821015612b2b57612b2a612ad3565b5b828203905092915050565b7f4e487b7100000000000000000000000000000000000000000000000000000000600052601260045260246000fd5b6000612b70826123d6565b9150612b7b836123d6565b925082612b8b57612b8a612b36565b5b828204905092915050565b6000612ba1826123d6565b9150612bac836123d6565b9250817fffffffffffffffffffffffffffffffffffffffffffffffffffffffffffffffff0483118215151615612be557612be4612ad3565b5b828202905092915050565b7f73616c6520686173206e6f742073746172746564207965740000000000000000600082015250565b6000612c26601883612326565b9150612c3182612bf0565b602082019050919050565b60006020820190508181036000830152612c5581612c19565b9050919050565b6000612c67826123d6565b9150612c72836123d6565b9250827fffffffffffffffffffffffffffffffffffffffffffffffffffffffffffffffff03821115612ca757612ca6612ad3565b5b828201905092915050565b7f6e6f7420656e6f7567682072656d61696e696e6720726573657276656420666f60008201527f722061756374696f6e20746f20737570706f72742064657369726564206d696e60208201527f7420616d6f756e74000000000000000000000000000000000000000000000000604082015250565b6000612d34604883612326565b9150612d3f82612cb2565b606082019050919050565b60006020820190508181036000830152612d6381612d27565b9050919050565b7f4e65656420746f2073656e64206d6f7265204554482e00000000000000000000600082015250565b6000612da0601683612326565b9150612dab82612d6a565b602082019050919050565b60006020820190508181036000830152612dcf81612d93565b9050919050565b6000612de1826123d6565b91507fffffffffffffffffffffffffffffffffffffffffffffffffffffffffffffffff821415612e1457612e13612ad3565b5b600182019050919050565b7f4552433732313a20696e76616c696420746f6b656e2049440000000000000000600082015250565b6000612e55601883612326565b9150612e6082612e1f565b602082019050919050565b60006020820190508181036000830152612e8481612e48565b9050919050565b7f4552433732313a2061646472657373207a65726f206973206e6f74206120766160008201527f6c6964206f776e65720000000000000000000000000000000000000000000000602082015250565b6000612ee7602983612326565b9150612ef282612e8b565b604082019050919050565b60006020820190508181036000830152612f1681612eda565b9050919050565b600081905092915050565b50565b6000612f38600083612f1d565b9150612f4382612f28565b600082019050919050565b6000612f5982612f2b565b9150819050919050565b7f5472616e73666572206661696c65640000000000000000000000000000000000600082015250565b6000612f99600f83612326565b9150612fa482612f63565b602082019050919050565b60006020820190508181036000830152612fc881612f8c565b9050919050565b600081905092915050565b6000612fe58261231b565b612fef8185612fcf565b9350612fff818560208601612337565b80840191505092915050565b60006130178285612fda565b91506130238284612fda565b91508190509392505050565b7f4f776e61626c653a206e6577206f776e657220697320746865207a65726f206160008201527f6464726573730000000000000000000000000000000000000000000000000000602082015250565b600061308b602683612326565b91506130968261302f565b604082019050919050565b600060208201905081810360008301526130ba8161307e565b9050919050565b7f4f776e61626c653a2063616c6c6572206973206e6f7420746865206f776e6572600082015250565b60006130f7602083612326565b9150613102826130c1565b602082019050919050565b60006020820190508181036000830152613126816130ea565b9050919050565b7f4552433732313a207472616e736665722066726f6d20696e636f72726563742060008201527f6f776e6572000000000000000000000000000000000000000000000000000000602082015250565b6000613189602583612326565b91506131948261312d565b604082019050919050565b600060208201905081810360008301526131b88161317c565b9050919050565b7f4552433732313a207472616e7366657220746f20746865207a65726f2061646460008201527f7265737300000000000000000000000000000000000000000000000000000000602082015250565b600061321b602483612326565b9150613226826131bf565b604082019050919050565b6000602082019050818103600083015261324a8161320e565b9050919050565b7f4552433732313a206d696e7420746f20746865207a65726f2061646472657373600082015250565b6000613287602083612326565b915061329282613251565b602082019050919050565b600060208201905081810360008301526132b68161327a565b9050919050565b7f4552433732313a20746f6b656e20616c7265616479206d696e74656400000000600082015250565b60006132f3601c83612326565b91506132fe826132bd565b602082019050919050565b60006020820190508181036000830152613322816132e6565b9050919050565b7f4552433732313a20617070726f766520746f2063616c6c657200000000000000600082015250565b600061335f601983612326565b915061336a82613329565b602082019050919050565b6000602082019050818103600083015261338e81613352565b9050919050565b7f4552433732313a207472616e7366657220746f206e6f6e20455243373231526560008201527f63656976657220696d706c656d656e7465720000000000000000000000000000602082015250565b60006133f1603283612326565b91506133fc82613395565b604082019050919050565b60006020820190508181036000830152613420816133e4565b9050919050565b600081519050919050565b600082825260208201905092915050565b600061344e82613427565b6134588185613432565b9350613468818560208601612337565b6134718161236a565b840191505092915050565b6000608082019050613491600083018761246b565b61349e602083018661246b565b6134ab6040830185612501565b81810360608301526134bd8184613443565b905095945050505050565b6000815190506134d781612223565b92915050565b6000602082840312156134f3576134f26121ed565b5b6000613501848285016134c8565b9150509291505056fea2646970667358221220dee31453f280cbabac3c6ad4885e86baab134bb35ff96327f73855c36d3cbea864736f6c63430008090033",
  "linkReferences": {},
  "deployedLinkReferences": {}
}