{
  "_format": "hh-sol-artifact-1",
  "contractName": "WTFApe",
  "sourceName": "contracts/WTFApe.sol",
  "abi": [
    {
      "inputs": [
        {
          "internalType": "string",
          "name": "name_",
          "type": "string"
        },
        {
          "internalType": "string",
          "name": "symbol_",
          "type": "string"
        }
      ],
      "stateMutability": "nonpayable",
      "type": "constructor"
    },
    {
      "anonymous": false,
      "inputs": [
        {
          "indexed": true,
          "internalType": "address",
          "name": "owner",
          "type": "address"
        },
        {
          "indexed": true,
          "internalType": "address",
          "name": "approved",
          "type": "address"
        },
        {
          "indexed": true,
          "internalType": "uint256",
          "name": "tokenId",
          "type": "uint256"
        }
      ],
      "name": "Approval",
      "type": "event"
    },
    {
      "anonymous": false,
      "inputs": [
        {
          "indexed": true,
          "internalType": "address",
          "name": "owner",
          "type": "address"
        },
        {
          "indexed": true,
          "internalType": "address",
          "name": "operator",
          "type": "address"
        },
        {
          "indexed": false,
          "internalType": "bool",
          "name": "approved",
          "type": "bool"
        }
      ],
      "name": "ApprovalForAll",
      "type": "event"
    },
    {
      "anonymous": false,
      "inputs": [
        {
          "indexed": true,
          "internalType": "address",
          "name": "from",
          "type": "address"
        },
        {
          "indexed": true,
          "internalType": "address",
          "name": "to",
          "type": "address"
        },
        {
          "indexed": true,
          "internalType": "uint256",
          "name": "tokenId",
          "type": "uint256"
        }
      ],
      "name": "Transfer",
      "type": "event"
    },
    {
      "inputs": [],
      "name": "MAX_APES",
      "outputs": [
        {
          "internalType": "uint256",
          "name": "",
          "type": "uint256"
        }
      ],
      "stateMutability": "view",
      "type": "function"
    },
    {
      "inputs": [
        {
          "internalType": "address",
          "name": "to",
          "type": "address"
        },
        {
          "internalType": "uint256",
          "name": "tokenId",
          "type": "uint256"
        }
      ],
      "name": "approve",
      "outputs": [],
      "stateMutability": "nonpayable",
      "type": "function"
    },
    {
      "inputs": [
        {
          "internalType": "address",
          "name": "owner",
          "type": "address"
        }
      ],
      "name": "balanceOf",
      "outputs": [
        {
          "internalType": "uint256",
          "name": "",
          "type": "uint256"
        }
      ],
      "stateMutability": "view",
      "type": "function"
    },
    {
      "inputs": [
        {
          "internalType": "uint256",
          "name": "tokenId",
          "type": "uint256"
        }
      ],
      "name": "getApproved",
      "outputs": [
        {
          "internalType": "address",
          "name": "",
          "type": "address"
        }
      ],
      "stateMutability": "view",
      "type": "function"
    },
    {
      "inputs": [
        {
          "internalType": "address",
          "name": "owner",
          "type": "address"
        },
        {
          "internalType": "address",
          "name": "operator",
          "type": "address"
        }
      ],
      "name": "isApprovedForAll",
      "outputs": [
        {
          "internalType": "bool",
          "name": "",
          "type": "bool"
        }
      ],
      "stateMutability": "view",
      "type": "function"
    },
    {
      "inputs": [
        {
          "internalType": "address",
          "name": "to",
          "type": "address"
        },
        {
          "internalType": "uint256",
          "name": "tokenId",
          "type": "uint256"
        }
      ],
      "name": "mint",
      "outputs": [],
      "stateMutability": "nonpayable",
      "type": "function"
    },
    {
      "inputs": [],
      "name": "name",
      "outputs": [
        {
          "internalType": "string",
          "name": "",
          "type": "string"
        }
      ],
      "stateMutability": "view",
      "type": "function"
    },
    {
      "inputs": [
        {
          "internalType": "uint256",
          "name": "tokenId",
          "type": "uint256"
        }
      ],
      "name": "ownerOf",
      "outputs": [
        {
          "internalType": "address",
          "name": "",
          "type": "address"
        }
      ],
      "stateMutability": "view",
      "type": "function"
    },
    {
      "inputs": [
        {
          "internalType": "address",
          "name": "from",
          "type": "address"
        },
        {
          "internalType": "address",
          "name": "to",
          "type": "address"
        },
        {
          "internalType": "uint256",
          "name": "tokenId",
          "type": "uint256"
        }
      ],
      "name": "safeTransferFrom",
      "outputs": [],
      "stateMutability": "nonpayable",
      "type": "function"
    },
    {
      "inputs": [
        {
          "internalType": "address",
          "name": "from",
          "type": "address"
        },
        {
          "internalType": "address",
          "name": "to",
          "type": "address"
        },
        {
          "internalType": "uint256",
          "name": "tokenId",
          "type": "uint256"
        },
        {
          "internalType": "bytes",
          "name": "data",
          "type": "bytes"
        }
      ],
      "name": "safeTransferFrom",
      "outputs": [],
      "stateMutability": "nonpayable",
      "type": "function"
    },
    {
      "inputs": [
        {
          "internalType": "address",
          "name": "operator",
          "type": "address"
        },
        {
          "internalType": "bool",
          "name": "approved",
          "type": "bool"
        }
      ],
      "name": "setApprovalForAll",
      "outputs": [],
      "stateMutability": "nonpayable",
      "type": "function"
    },
    {
      "inputs": [
        {
          "internalType": "bytes4",
          "name": "interfaceId",
          "type": "bytes4"
        }
      ],
      "name": "supportsInterface",
      "outputs": [
        {
          "internalType": "bool",
          "name": "",
          "type": "bool"
        }
      ],
      "stateMutability": "view",
      "type": "function"
    },
    {
      "inputs": [],
      "name": "symbol",
      "outputs": [
        {
          "internalType": "string",
          "name": "",
          "type": "string"
        }
      ],
      "stateMutability": "view",
      "type": "function"
    },
    {
      "inputs": [
        {
          "internalType": "uint256",
          "name": "tokenId",
          "type": "uint256"
        }
      ],
      "name": "tokenURI",
      "outputs": [
        {
          "internalType": "string",
          "name": "",
          "type": "string"
        }
      ],
      "stateMutability": "view",
      "type": "function"
    },
    {
      "inputs": [
        {
          "internalType": "address",
          "name": "from",
          "type": "address"
        },
        {
          "internalType": "address",
          "name": "to",
          "type": "address"
        },
        {
          "internalType": "uint256",
          "name": "tokenId",
          "type": "uint256"
        }
      ],
      "name": "transferFrom",
      "outputs": [],
      "stateMutability": "nonpayable",
      "type": "function"
    }
  ],
  "bytecode": "0x60806040526127106006553480156200001757600080fd5b50604051620029713803806200297183398181016040528101906200003d9190620002c8565b81818160009080519060200190620000579291906200007b565b508060019080519060200190620000709291906200007b565b5050505050620003b2565b82805462000089906200037c565b90600052602060002090601f016020900481019282620000ad5760008555620000f9565b82601f10620000c857805160ff1916838001178555620000f9565b82800160010185558215620000f9579182015b82811115620000f8578251825591602001919060010190620000db565b5b5090506200010891906200010c565b5090565b5b80821115620001275760008160009055506001016200010d565b5090565b6000604051905090565b600080fd5b600080fd5b600080fd5b600080fd5b6000601f19601f8301169050919050565b7f4e487b7100000000000000000000000000000000000000000000000000000000600052604160045260246000fd5b620001948262000149565b810181811067ffffffffffffffff82111715620001b657620001b56200015a565b5b80604052505050565b6000620001cb6200012b565b9050620001d9828262000189565b919050565b600067ffffffffffffffff821115620001fc57620001fb6200015a565b5b620002078262000149565b9050602081019050919050565b60005b838110156200023457808201518184015260208101905062000217565b8381111562000244576000848401525b50505050565b6000620002616200025b84620001de565b620001bf565b90508281526020810184848401111562000280576200027f62000144565b5b6200028d84828562000214565b509392505050565b600082601f830112620002ad57620002ac6200013f565b5b8151620002bf8482602086016200024a565b91505092915050565b60008060408385031215620002e257620002e162000135565b5b600083015167ffffffffffffffff8111156200030357620003026200013a565b5b620003118582860162000295565b925050602083015167ffffffffffffffff8111156200033557620003346200013a565b5b620003438582860162000295565b9150509250929050565b7f4e487b7100000000000000000000000000000000000000000000000000000000600052602260045260246000fd5b600060028204905060018216806200039557607f821691505b60208210811415620003ac57620003ab6200034d565b5b50919050565b6125af80620003c26000396000f3fe608060405234801561001057600080fd5b50600436106100f55760003560e01c80636352211e11610097578063b88d4fde11610066578063b88d4fde14610282578063bb8a16bd1461029e578063c87b56dd146102bc578063e985e9c5146102ec576100f5565b80636352211e146101e857806370a082311461021857806395d89b4114610248578063a22cb46514610266576100f5565b8063095ea7b3116100d3578063095ea7b31461017857806323b872dd1461019457806340c10f19146101b057806342842e0e146101cc576100f5565b806301ffc9a7146100fa57806306fdde031461012a578063081812fc14610148575b600080fd5b610114600480360381019061010f91906117ff565b61031c565b6040516101219190611847565b60405180910390f35b6101326103fe565b60405161013f91906118fb565b60405180910390f35b610162600480360381019061015d9190611953565b610490565b60405161016f91906119c1565b60405180910390f35b610192600480360381019061018d9190611a08565b6104d6565b005b6101ae60048036038101906101a99190611a48565b6105ee565b005b6101ca60048036038101906101c59190611a08565b61064e565b005b6101e660048036038101906101e19190611a48565b6106ad565b005b61020260048036038101906101fd9190611953565b6106cd565b60405161020f91906119c1565b60405180910390f35b610232600480360381019061022d9190611a9b565b610754565b60405161023f9190611ad7565b60405180910390f35b61025061080c565b60405161025d91906118fb565b60405180910390f35b610280600480360381019061027b9190611b1e565b61089e565b005b61029c60048036038101906102979190611c93565b6108b4565b005b6102a6610916565b6040516102b39190611ad7565b60405180910390f35b6102d660048036038101906102d19190611953565b61091c565b6040516102e391906118fb565b60405180910390f35b61030660048036038101906103019190611d16565b610984565b6040516103139190611847565b60405180910390f35b60007f80ac58cd000000000000000000000000000000000000000000000000000000007bffffffffffffffffffffffffffffffffffffffffffffffffffffffff1916827bffffffffffffffffffffffffffffffffffffffffffffffffffffffff191614806103e757507f5b5e139f000000000000000000000000000000000000000000000000000000007bffffffffffffffffffffffffffffffffffffffffffffffffffffffff1916827bffffffffffffffffffffffffffffffffffffffffffffffffffffffff1916145b806103f757506103f682610a18565b5b9050919050565b60606000805461040d90611d85565b80601f016020809104026020016040519081016040528092919081815260200182805461043990611d85565b80156104865780601f1061045b57610100808354040283529160200191610486565b820191906000526020600020905b81548152906001019060200180831161046957829003601f168201915b5050505050905090565b600061049b82610a82565b6004600083815260200190815260200160002060009054906101000a900473ffffffffffffffffffffffffffffffffffffffff169050919050565b60006104e1826106cd565b90508073ffffffffffffffffffffffffffffffffffffffff168373ffffffffffffffffffffffffffffffffffffffff161415610552576040517f08c379a000000000000000000000000000000000000000000000000000000000815260040161054990611e29565b60405180910390fd5b8073ffffffffffffffffffffffffffffffffffffffff16610571610acd565b73ffffffffffffffffffffffffffffffffffffffff1614806105a0575061059f8161059a610acd565b610984565b5b6105df576040517f08c379a00000000000000000000000000000000000000000000000000000000081526004016105d690611ebb565b60405180910390fd5b6105e98383610ad5565b505050565b6105ff6105f9610acd565b82610b8e565b61063e576040517f08c379a000000000000000000000000000000000000000000000000000000000815260040161063590611f4d565b60405180910390fd5b610649838383610c23565b505050565b60008110158015610660575060065481105b61069f576040517f08c379a000000000000000000000000000000000000000000000000000000000815260040161069690611fb9565b60405180910390fd5b6106a98282610f1d565b5050565b6106c8838383604051806020016040528060008152506108b4565b505050565b6000806106d98361113b565b9050600073ffffffffffffffffffffffffffffffffffffffff168173ffffffffffffffffffffffffffffffffffffffff16141561074b576040517f08c379a000000000000000000000000000000000000000000000000000000000815260040161074290612025565b60405180910390fd5b80915050919050565b60008073ffffffffffffffffffffffffffffffffffffffff168273ffffffffffffffffffffffffffffffffffffffff1614156107c5576040517f08c379a00000000000000000000000000000000000000000000000000000000081526004016107bc906120b7565b60405180910390fd5b600360008373ffffffffffffffffffffffffffffffffffffffff1673ffffffffffffffffffffffffffffffffffffffff168152602001908152602001600020549050919050565b60606001805461081b90611d85565b80601f016020809104026020016040519081016040528092919081815260200182805461084790611d85565b80156108945780601f1061086957610100808354040283529160200191610894565b820191906000526020600020905b81548152906001019060200180831161087757829003601f168201915b5050505050905090565b6108b06108a9610acd565b8383611178565b5050565b6108c56108bf610acd565b83610b8e565b610904576040517f08c379a00000000000000000000000000000000000000000000000000000000081526004016108fb90611f4d565b60405180910390fd5b610910848484846112e5565b50505050565b60065481565b606061092782610a82565b6000610931611341565b90506000815111610951576040518060200160405280600081525061097c565b8061095b84611361565b60405160200161096c929190612113565b6040516020818303038152906040525b915050919050565b6000600560008473ffffffffffffffffffffffffffffffffffffffff1673ffffffffffffffffffffffffffffffffffffffff16815260200190815260200160002060008373ffffffffffffffffffffffffffffffffffffffff1673ffffffffffffffffffffffffffffffffffffffff16815260200190815260200160002060009054906101000a900460ff16905092915050565b60007f01ffc9a7000000000000000000000000000000000000000000000000000000007bffffffffffffffffffffffffffffffffffffffffffffffffffffffff1916827bffffffffffffffffffffffffffffffffffffffffffffffffffffffff1916149050919050565b610a8b81611439565b610aca576040517f08c379a0000000000000000000000000000000000000000000000000000000008152600401610ac190612025565b60405180910390fd5b50565b600033905090565b816004600083815260200190815260200160002060006101000a81548173ffffffffffffffffffffffffffffffffffffffff021916908373ffffffffffffffffffffffffffffffffffffffff160217905550808273ffffffffffffffffffffffffffffffffffffffff16610b48836106cd565b73ffffffffffffffffffffffffffffffffffffffff167f8c5be1e5ebec7d5bd14f71427d1e84f3dd0314c0f7b2291e5b200ac8c7c3b92560405160405180910390a45050565b600080610b9a836106cd565b90508073ffffffffffffffffffffffffffffffffffffffff168473ffffffffffffffffffffffffffffffffffffffff161480610bdc5750610bdb8185610984565b5b80610c1a57508373ffffffffffffffffffffffffffffffffffffffff16610c0284610490565b73ffffffffffffffffffffffffffffffffffffffff16145b91505092915050565b8273ffffffffffffffffffffffffffffffffffffffff16610c43826106cd565b73ffffffffffffffffffffffffffffffffffffffff1614610c99576040517f08c379a0000000000000000000000000000000000000000000000000000000008152600401610c90906121a9565b60405180910390fd5b600073ffffffffffffffffffffffffffffffffffffffff168273ffffffffffffffffffffffffffffffffffffffff161415610d09576040517f08c379a0000000000000000000000000000000000000000000000000000000008152600401610d009061223b565b60405180910390fd5b610d16838383600161147a565b8273ffffffffffffffffffffffffffffffffffffffff16610d36826106cd565b73ffffffffffffffffffffffffffffffffffffffff1614610d8c576040517f08c379a0000000000000000000000000000000000000000000000000000000008152600401610d83906121a9565b60405180910390fd5b6004600082815260200190815260200160002060006101000a81549073ffffffffffffffffffffffffffffffffffffffff02191690556001600360008573ffffffffffffffffffffffffffffffffffffffff1673ffffffffffffffffffffffffffffffffffffffff168152602001908152602001600020600082825403925050819055506001600360008473ffffffffffffffffffffffffffffffffffffffff1673ffffffffffffffffffffffffffffffffffffffff16815260200190815260200160002060008282540192505081905550816002600083815260200190815260200160002060006101000a81548173ffffffffffffffffffffffffffffffffffffffff021916908373ffffffffffffffffffffffffffffffffffffffff160217905550808273ffffffffffffffffffffffffffffffffffffffff168473ffffffffffffffffffffffffffffffffffffffff167fddf252ad1be2c89b69c2b068fc378daa952ba7f163c4a11628f55a4df523b3ef60405160405180910390a4610f188383836001611480565b505050565b600073ffffffffffffffffffffffffffffffffffffffff168273ffffffffffffffffffffffffffffffffffffffff161415610f8d576040517f08c379a0000000000000000000000000000000000000000000000000000000008152600401610f84906122a7565b60405180910390fd5b610f9681611439565b15610fd6576040517f08c379a0000000000000000000000000000000000000000000000000000000008152600401610fcd90612313565b60405180910390fd5b610fe460008383600161147a565b610fed81611439565b1561102d576040517f08c379a000000000000000000000000000000000000000000000000000000000815260040161102490612313565b60405180910390fd5b6001600360008473ffffffffffffffffffffffffffffffffffffffff1673ffffffffffffffffffffffffffffffffffffffff16815260200190815260200160002060008282540192505081905550816002600083815260200190815260200160002060006101000a81548173ffffffffffffffffffffffffffffffffffffffff021916908373ffffffffffffffffffffffffffffffffffffffff160217905550808273ffffffffffffffffffffffffffffffffffffffff16600073ffffffffffffffffffffffffffffffffffffffff167fddf252ad1be2c89b69c2b068fc378daa952ba7f163c4a11628f55a4df523b3ef60405160405180910390a4611137600083836001611480565b5050565b60006002600083815260200190815260200160002060009054906101000a900473ffffffffffffffffffffffffffffffffffffffff169050919050565b8173ffffffffffffffffffffffffffffffffffffffff168373ffffffffffffffffffffffffffffffffffffffff1614156111e7576040517f08c379a00000000000000000000000000000000000000000000000000000000081526004016111de9061237f565b60405180910390fd5b80600560008573ffffffffffffffffffffffffffffffffffffffff1673ffffffffffffffffffffffffffffffffffffffff16815260200190815260200160002060008473ffffffffffffffffffffffffffffffffffffffff1673ffffffffffffffffffffffffffffffffffffffff16815260200190815260200160002060006101000a81548160ff0219169083151502179055508173ffffffffffffffffffffffffffffffffffffffff168373ffffffffffffffffffffffffffffffffffffffff167f17307eab39ab6107e8899845ad3d59bd9653f200f220920489ca2b5937696c31836040516112d89190611847565b60405180910390a3505050565b6112f0848484610c23565b6112fc84848484611486565b61133b576040517f08c379a000000000000000000000000000000000000000000000000000000000815260040161133290612411565b60405180910390fd5b50505050565b606060405180606001604052806036815260200161254460369139905090565b6060600060016113708461161d565b01905060008167ffffffffffffffff81111561138f5761138e611b68565b5b6040519080825280601f01601f1916602001820160405280156113c15781602001600182028036833780820191505090505b509050600082602001820190505b60011561142e578080600190039150507f3031323334353637383961626364656600000000000000000000000000000000600a86061a8153600a858161141857611417612431565b5b04945060008514156114295761142e565b6113cf565b819350505050919050565b60008073ffffffffffffffffffffffffffffffffffffffff1661145b8361113b565b73ffffffffffffffffffffffffffffffffffffffff1614159050919050565b50505050565b50505050565b60006114a78473ffffffffffffffffffffffffffffffffffffffff16611770565b15611610578373ffffffffffffffffffffffffffffffffffffffff1663150b7a026114d0610acd565b8786866040518563ffffffff1660e01b81526004016114f294939291906124b5565b602060405180830381600087803b15801561150c57600080fd5b505af192505050801561153d57506040513d601f19601f8201168201806040525081019061153a9190612516565b60015b6115c0573d806000811461156d576040519150601f19603f3d011682016040523d82523d6000602084013e611572565b606091505b506000815114156115b8576040517f08c379a00000000000000000000000000000000000000000000000000000000081526004016115af90612411565b60405180910390fd5b805181602001fd5b63150b7a0260e01b7bffffffffffffffffffffffffffffffffffffffffffffffffffffffff1916817bffffffffffffffffffffffffffffffffffffffffffffffffffffffff191614915050611615565b600190505b949350505050565b600080600090507a184f03e93ff9f4daa797ed6e38ed64bf6a1f010000000000000000831061167b577a184f03e93ff9f4daa797ed6e38ed64bf6a1f010000000000000000838161167157611670612431565b5b0492506040810190505b6d04ee2d6d415b85acef810000000083106116b8576d04ee2d6d415b85acef810000000083816116ae576116ad612431565b5b0492506020810190505b662386f26fc1000083106116e757662386f26fc1000083816116dd576116dc612431565b5b0492506010810190505b6305f5e1008310611710576305f5e100838161170657611705612431565b5b0492506008810190505b612710831061173557612710838161172b5761172a612431565b5b0492506004810190505b60648310611758576064838161174e5761174d612431565b5b0492506002810190505b600a8310611767576001810190505b80915050919050565b6000808273ffffffffffffffffffffffffffffffffffffffff163b119050919050565b6000604051905090565b600080fd5b600080fd5b60007fffffffff0000000000000000000000000000000000000000000000000000000082169050919050565b6117dc816117a7565b81146117e757600080fd5b50565b6000813590506117f9816117d3565b92915050565b6000602082840312156118155761181461179d565b5b6000611823848285016117ea565b91505092915050565b60008115159050919050565b6118418161182c565b82525050565b600060208201905061185c6000830184611838565b92915050565b600081519050919050565b600082825260208201905092915050565b60005b8381101561189c578082015181840152602081019050611881565b838111156118ab576000848401525b50505050565b6000601f19601f8301169050919050565b60006118cd82611862565b6118d7818561186d565b93506118e781856020860161187e565b6118f0816118b1565b840191505092915050565b6000602082019050818103600083015261191581846118c2565b905092915050565b6000819050919050565b6119308161191d565b811461193b57600080fd5b50565b60008135905061194d81611927565b92915050565b6000602082840312156119695761196861179d565b5b60006119778482850161193e565b91505092915050565b600073ffffffffffffffffffffffffffffffffffffffff82169050919050565b60006119ab82611980565b9050919050565b6119bb816119a0565b82525050565b60006020820190506119d660008301846119b2565b92915050565b6119e5816119a0565b81146119f057600080fd5b50565b600081359050611a02816119dc565b92915050565b60008060408385031215611a1f57611a1e61179d565b5b6000611a2d858286016119f3565b9250506020611a3e8582860161193e565b9150509250929050565b600080600060608486031215611a6157611a6061179d565b5b6000611a6f868287016119f3565b9350506020611a80868287016119f3565b9250506040611a918682870161193e565b9150509250925092565b600060208284031215611ab157611ab061179d565b5b6000611abf848285016119f3565b91505092915050565b611ad18161191d565b82525050565b6000602082019050611aec6000830184611ac8565b92915050565b611afb8161182c565b8114611b0657600080fd5b50565b600081359050611b1881611af2565b92915050565b60008060408385031215611b3557611b3461179d565b5b6000611b43858286016119f3565b9250506020611b5485828601611b09565b9150509250929050565b600080fd5b600080fd5b7f4e487b7100000000000000000000000000000000000000000000000000000000600052604160045260246000fd5b611ba0826118b1565b810181811067ffffffffffffffff82111715611bbf57611bbe611b68565b5b80604052505050565b6000611bd2611793565b9050611bde8282611b97565b919050565b600067ffffffffffffffff821115611bfe57611bfd611b68565b5b611c07826118b1565b9050602081019050919050565b82818337600083830152505050565b6000611c36611c3184611be3565b611bc8565b905082815260208101848484011115611c5257611c51611b63565b5b611c5d848285611c14565b509392505050565b600082601f830112611c7a57611c79611b5e565b5b8135611c8a848260208601611c23565b91505092915050565b60008060008060808587031215611cad57611cac61179d565b5b6000611cbb878288016119f3565b9450506020611ccc878288016119f3565b9350506040611cdd8782880161193e565b925050606085013567ffffffffffffffff811115611cfe57611cfd6117a2565b5b611d0a87828801611c65565b91505092959194509250565b60008060408385031215611d2d57611d2c61179d565b5b6000611d3b858286016119f3565b9250506020611d4c858286016119f3565b9150509250929050565b7f4e487b7100000000000000000000000000000000000000000000000000000000600052602260045260246000fd5b60006002820490506001821680611d9d57607f821691505b60208210811415611db157611db0611d56565b5b50919050565b7f4552433732313a20617070726f76616c20746f2063757272656e74206f776e6560008201527f7200000000000000000000000000000000000000000000000000000000000000602082015250565b6000611e1360218361186d565b9150611e1e82611db7565b604082019050919050565b60006020820190508181036000830152611e4281611e06565b9050919050565b7f4552433732313a20617070726f76652063616c6c6572206973206e6f7420746f60008201527f6b656e206f776e6572206f7220617070726f76656420666f7220616c6c000000602082015250565b6000611ea5603d8361186d565b9150611eb082611e49565b604082019050919050565b60006020820190508181036000830152611ed481611e98565b9050919050565b7f4552433732313a2063616c6c6572206973206e6f7420746f6b656e206f776e6560008201527f72206f7220617070726f76656400000000000000000000000000000000000000602082015250565b6000611f37602d8361186d565b9150611f4282611edb565b604082019050919050565b60006020820190508181036000830152611f6681611f2a565b9050919050565b7f746f6b656e4964206f7574206f662072616e6765000000000000000000000000600082015250565b6000611fa360148361186d565b9150611fae82611f6d565b602082019050919050565b60006020820190508181036000830152611fd281611f96565b9050919050565b7f4552433732313a20696e76616c696420746f6b656e2049440000000000000000600082015250565b600061200f60188361186d565b915061201a82611fd9565b602082019050919050565b6000602082019050818103600083015261203e81612002565b9050919050565b7f4552433732313a2061646472657373207a65726f206973206e6f74206120766160008201527f6c6964206f776e65720000000000000000000000000000000000000000000000602082015250565b60006120a160298361186d565b91506120ac82612045565b604082019050919050565b600060208201905081810360008301526120d081612094565b9050919050565b600081905092915050565b60006120ed82611862565b6120f781856120d7565b935061210781856020860161187e565b80840191505092915050565b600061211f82856120e2565b915061212b82846120e2565b91508190509392505050565b7f4552433732313a207472616e736665722066726f6d20696e636f72726563742060008201527f6f776e6572000000000000000000000000000000000000000000000000000000602082015250565b600061219360258361186d565b915061219e82612137565b604082019050919050565b600060208201905081810360008301526121c281612186565b9050919050565b7f4552433732313a207472616e7366657220746f20746865207a65726f2061646460008201527f7265737300000000000000000000000000000000000000000000000000000000602082015250565b600061222560248361186d565b9150612230826121c9565b604082019050919050565b6000602082019050818103600083015261225481612218565b9050919050565b7f4552433732313a206d696e7420746f20746865207a65726f2061646472657373600082015250565b600061229160208361186d565b915061229c8261225b565b602082019050919050565b600060208201905081810360008301526122c081612284565b9050919050565b7f4552433732313a20746f6b656e20616c7265616479206d696e74656400000000600082015250565b60006122fd601c8361186d565b9150612308826122c7565b602082019050919050565b6000602082019050818103600083015261232c816122f0565b9050919050565b7f4552433732313a20617070726f766520746f2063616c6c657200000000000000600082015250565b600061236960198361186d565b915061237482612333565b602082019050919050565b600060208201905081810360008301526123988161235c565b9050919050565b7f4552433732313a207472616e7366657220746f206e6f6e20455243373231526560008201527f63656976657220696d706c656d656e7465720000000000000000000000000000602082015250565b60006123fb60328361186d565b91506124068261239f565b604082019050919050565b6000602082019050818103600083015261242a816123ee565b9050919050565b7f4e487b7100000000000000000000000000000000000000000000000000000000600052601260045260246000fd5b600081519050919050565b600082825260208201905092915050565b600061248782612460565b612491818561246b565b93506124a181856020860161187e565b6124aa816118b1565b840191505092915050565b60006080820190506124ca60008301876119b2565b6124d760208301866119b2565b6124e46040830185611ac8565b81810360608301526124f6818461247c565b905095945050505050565b600081519050612510816117d3565b92915050565b60006020828403121561252c5761252b61179d565b5b600061253a84828501612501565b9150509291505056fe697066733a2f2f516d65536a53696e4870506e6d586d73704d6a776958794e367a533445397a63636172694752336a7863615774712fa2646970667358221220c52a23484283cbd1440e1500b3e18965f1c561704e113d7dba7775180067f6b164736f6c63430008090033",
  "linkReferences": {},
  "deployedLinkReferences": {}
}